{
  "_format": "hh-sol-artifact-1",
  "contractName": "DixiNFT",
  "sourceName": "contracts/DixiNFT.sol",
  "abi": [
    {
      "inputs": [],
      "stateMutability": "nonpayable",
      "type": "constructor"
    },
    {
      "anonymous": false,
      "inputs": [
        {
          "indexed": true,
          "internalType": "address",
          "name": "owner",
          "type": "address"
        },
        {
          "indexed": true,
          "internalType": "address",
          "name": "approved",
          "type": "address"
        },
        {
          "indexed": true,
          "internalType": "uint256",
          "name": "tokenId",
          "type": "uint256"
        }
      ],
      "name": "Approval",
      "type": "event"
    },
    {
      "anonymous": false,
      "inputs": [
        {
          "indexed": true,
          "internalType": "address",
          "name": "owner",
          "type": "address"
        },
        {
          "indexed": true,
          "internalType": "address",
          "name": "operator",
          "type": "address"
        },
        {
          "indexed": false,
          "internalType": "bool",
          "name": "approved",
          "type": "bool"
        }
      ],
      "name": "ApprovalForAll",
      "type": "event"
    },
    {
      "anonymous": false,
      "inputs": [
        {
          "indexed": true,
          "internalType": "address",
          "name": "sender",
          "type": "address"
        },
        {
          "indexed": false,
          "internalType": "uint256",
          "name": "id",
          "type": "uint256"
        },
        {
          "indexed": false,
          "internalType": "uint256",
          "name": "amount",
          "type": "uint256"
        }
      ],
      "name": "AttmeptLog",
      "type": "event"
    },
    {
      "anonymous": false,
      "inputs": [
        {
          "indexed": true,
          "internalType": "address",
          "name": "sender",
          "type": "address"
        },
        {
          "indexed": false,
          "internalType": "uint256",
          "name": "id",
          "type": "uint256"
        },
        {
          "indexed": false,
          "internalType": "uint256",
          "name": "amount",
          "type": "uint256"
        }
      ],
      "name": "MintLog",
      "type": "event"
    },
    {
      "anonymous": false,
      "inputs": [
        {
          "indexed": true,
          "internalType": "address",
          "name": "previousOwner",
          "type": "address"
        },
        {
          "indexed": true,
          "internalType": "address",
          "name": "newOwner",
          "type": "address"
        }
      ],
      "name": "OwnershipTransferred",
      "type": "event"
    },
    {
      "anonymous": false,
      "inputs": [
        {
          "indexed": true,
          "internalType": "address",
          "name": "from",
          "type": "address"
        },
        {
          "indexed": true,
          "internalType": "address",
          "name": "to",
          "type": "address"
        },
        {
          "indexed": true,
          "internalType": "uint256",
          "name": "tokenId",
          "type": "uint256"
        }
      ],
      "name": "Transfer",
      "type": "event"
    },
    {
      "inputs": [
        {
          "internalType": "uint256",
          "name": "",
          "type": "uint256"
        }
      ],
      "name": "_gameParticipation",
      "outputs": [
        {
          "internalType": "bool",
          "name": "",
          "type": "bool"
        }
      ],
      "stateMutability": "view",
      "type": "function"
    },
    {
      "inputs": [
        {
          "internalType": "uint256",
          "name": "",
          "type": "uint256"
        }
      ],
      "name": "_inputHashes",
      "outputs": [
        {
          "internalType": "bytes32",
          "name": "",
          "type": "bytes32"
        }
      ],
      "stateMutability": "view",
      "type": "function"
    },
    {
      "inputs": [
        {
          "internalType": "uint256",
          "name": "",
          "type": "uint256"
        }
      ],
      "name": "_minters",
      "outputs": [
        {
          "internalType": "address",
          "name": "",
          "type": "address"
        }
      ],
      "stateMutability": "view",
      "type": "function"
    },
    {
      "inputs": [
        {
          "internalType": "address",
          "name": "to",
          "type": "address"
        },
        {
          "internalType": "uint256",
          "name": "tokenId",
          "type": "uint256"
        }
      ],
      "name": "approve",
      "outputs": [],
      "stateMutability": "nonpayable",
      "type": "function"
    },
    {
      "inputs": [
        {
          "internalType": "address",
          "name": "owner",
          "type": "address"
        }
      ],
      "name": "balanceOf",
      "outputs": [
        {
          "internalType": "uint256",
          "name": "",
          "type": "uint256"
        }
      ],
      "stateMutability": "view",
      "type": "function"
    },
    {
      "inputs": [
        {
          "internalType": "uint256",
          "name": "id",
          "type": "uint256"
        }
      ],
      "name": "enterTheGame",
      "outputs": [],
      "stateMutability": "nonpayable",
      "type": "function"
    },
    {
      "inputs": [
        {
          "internalType": "uint256",
          "name": "id",
          "type": "uint256"
        }
      ],
      "name": "exitGame",
      "outputs": [],
      "stateMutability": "nonpayable",
      "type": "function"
    },
    {
      "inputs": [
        {
          "internalType": "uint256",
          "name": "tokenId",
          "type": "uint256"
        }
      ],
      "name": "getApproved",
      "outputs": [
        {
          "internalType": "address",
          "name": "",
          "type": "address"
        }
      ],
      "stateMutability": "view",
      "type": "function"
    },
    {
      "inputs": [],
      "name": "getCurrentPrice",
      "outputs": [
        {
          "internalType": "uint256",
          "name": "",
          "type": "uint256"
        }
      ],
      "stateMutability": "view",
      "type": "function"
    },
    {
      "inputs": [
        {
          "internalType": "address",
          "name": "owner",
          "type": "address"
        },
        {
          "internalType": "address",
          "name": "operator",
          "type": "address"
        }
      ],
      "name": "isApprovedForAll",
      "outputs": [
        {
          "internalType": "bool",
          "name": "",
          "type": "bool"
        }
      ],
      "stateMutability": "view",
      "type": "function"
    },
    {
      "inputs": [
        {
          "internalType": "uint256",
          "name": "id",
          "type": "uint256"
        },
        {
          "internalType": "string",
          "name": "ipfsTokenUri",
          "type": "string"
        }
      ],
      "name": "mintFinalize",
      "outputs": [
        {
          "internalType": "uint256",
          "name": "",
          "type": "uint256"
        }
      ],
      "stateMutability": "nonpayable",
      "type": "function"
    },
    {
      "inputs": [
        {
          "internalType": "address",
          "name": "to",
          "type": "address"
        },
        {
          "internalType": "bytes32",
          "name": "inputHash",
          "type": "bytes32"
        },
        {
          "internalType": "bool",
          "name": "enterGame",
          "type": "bool"
        }
      ],
      "name": "mintItem",
      "outputs": [
        {
          "internalType": "uint256",
          "name": "",
          "type": "uint256"
        }
      ],
      "stateMutability": "payable",
      "type": "function"
    },
    {
      "inputs": [],
      "name": "name",
      "outputs": [
        {
          "internalType": "string",
          "name": "",
          "type": "string"
        }
      ],
      "stateMutability": "view",
      "type": "function"
    },
    {
      "inputs": [],
      "name": "owner",
      "outputs": [
        {
          "internalType": "address",
          "name": "",
          "type": "address"
        }
      ],
      "stateMutability": "view",
      "type": "function"
    },
    {
      "inputs": [
        {
          "internalType": "uint256",
          "name": "tokenId",
          "type": "uint256"
        }
      ],
      "name": "ownerOf",
      "outputs": [
        {
          "internalType": "address",
          "name": "",
          "type": "address"
        }
      ],
      "stateMutability": "view",
      "type": "function"
    },
    {
      "inputs": [],
      "name": "renounceOwnership",
      "outputs": [],
      "stateMutability": "nonpayable",
      "type": "function"
    },
    {
      "inputs": [
        {
          "internalType": "address",
          "name": "from",
          "type": "address"
        },
        {
          "internalType": "address",
          "name": "to",
          "type": "address"
        },
        {
          "internalType": "uint256",
          "name": "tokenId",
          "type": "uint256"
        }
      ],
      "name": "safeTransferFrom",
      "outputs": [],
      "stateMutability": "nonpayable",
      "type": "function"
    },
    {
      "inputs": [
        {
          "internalType": "address",
          "name": "from",
          "type": "address"
        },
        {
          "internalType": "address",
          "name": "to",
          "type": "address"
        },
        {
          "internalType": "uint256",
          "name": "tokenId",
          "type": "uint256"
        },
        {
          "internalType": "bytes",
          "name": "data",
          "type": "bytes"
        }
      ],
      "name": "safeTransferFrom",
      "outputs": [],
      "stateMutability": "nonpayable",
      "type": "function"
    },
    {
      "inputs": [
        {
          "internalType": "address",
          "name": "operator",
          "type": "address"
        },
        {
          "internalType": "bool",
          "name": "approved",
          "type": "bool"
        }
      ],
      "name": "setApprovalForAll",
      "outputs": [],
      "stateMutability": "nonpayable",
      "type": "function"
    },
    {
      "inputs": [
        {
          "internalType": "bytes4",
          "name": "interfaceId",
          "type": "bytes4"
        }
      ],
      "name": "supportsInterface",
      "outputs": [
        {
          "internalType": "bool",
          "name": "",
          "type": "bool"
        }
      ],
      "stateMutability": "view",
      "type": "function"
    },
    {
      "inputs": [],
      "name": "symbol",
      "outputs": [
        {
          "internalType": "string",
          "name": "",
          "type": "string"
        }
      ],
      "stateMutability": "view",
      "type": "function"
    },
    {
      "inputs": [
        {
          "internalType": "uint256",
          "name": "id",
          "type": "uint256"
        },
        {
          "internalType": "uint8",
          "name": "v",
          "type": "uint8"
        },
        {
          "internalType": "bytes32",
          "name": "r",
          "type": "bytes32"
        },
        {
          "internalType": "bytes32",
          "name": "s",
          "type": "bytes32"
        }
      ],
      "name": "takeOver",
      "outputs": [],
      "stateMutability": "nonpayable",
      "type": "function"
    },
    {
      "inputs": [
        {
          "internalType": "uint256",
          "name": "index",
          "type": "uint256"
        }
      ],
      "name": "tokenByIndex",
      "outputs": [
        {
          "internalType": "uint256",
          "name": "",
          "type": "uint256"
        }
      ],
      "stateMutability": "view",
      "type": "function"
    },
    {
      "inputs": [
        {
          "internalType": "address",
          "name": "owner",
          "type": "address"
        },
        {
          "internalType": "uint256",
          "name": "index",
          "type": "uint256"
        }
      ],
      "name": "tokenOfOwnerByIndex",
      "outputs": [
        {
          "internalType": "uint256",
          "name": "",
          "type": "uint256"
        }
      ],
      "stateMutability": "view",
      "type": "function"
    },
    {
      "inputs": [
        {
          "internalType": "uint256",
          "name": "tokenId",
          "type": "uint256"
        }
      ],
      "name": "tokenURI",
      "outputs": [
        {
          "internalType": "string",
          "name": "",
          "type": "string"
        }
      ],
      "stateMutability": "view",
      "type": "function"
    },
    {
      "inputs": [],
      "name": "totalSupply",
      "outputs": [
        {
          "internalType": "uint256",
          "name": "",
          "type": "uint256"
        }
      ],
      "stateMutability": "view",
      "type": "function"
    },
    {
      "inputs": [
        {
          "internalType": "address",
          "name": "from",
          "type": "address"
        },
        {
          "internalType": "address",
          "name": "to",
          "type": "address"
        },
        {
          "internalType": "uint256",
          "name": "tokenId",
          "type": "uint256"
        }
      ],
      "name": "transferFrom",
      "outputs": [],
      "stateMutability": "nonpayable",
      "type": "function"
    },
    {
      "inputs": [
        {
          "internalType": "address",
          "name": "owner",
          "type": "address"
        }
      ],
      "name": "transferOwnership",
      "outputs": [],
      "stateMutability": "nonpayable",
      "type": "function"
    },
    {
      "inputs": [
        {
          "internalType": "uint256",
          "name": "id",
          "type": "uint256"
        },
        {
          "internalType": "string",
          "name": "phrase",
          "type": "string"
        }
      ],
      "name": "tryGuess",
      "outputs": [],
      "stateMutability": "payable",
      "type": "function"
    },
    {
      "inputs": [
        {
          "internalType": "uint256",
          "name": "amount",
          "type": "uint256"
        }
      ],
      "name": "withdraw",
      "outputs": [],
      "stateMutability": "payable",
      "type": "function"
    }
  ],
  "bytecode": "0x60806040523480156200001157600080fd5b506040805180820182526007815266111a5e1a53919560ca1b6020808301918252835180850190945260048452634449584960e01b9084015281519192916200005d9160009162000101565b5080516200007390600190602084019062000101565b505050620000906200008a620000ab60201b60201c565b620000af565b662386f26fc10000600d5560006016819055601755620001e4565b3390565b600b80546001600160a01b038381166001600160a01b0319831681179093556040519116919082907f8be0079c531659141344cd1fd0a4f28419497f9722a3daafe3b4186f6b6457e090600090a35050565b8280546200010f90620001a7565b90600052602060002090601f0160209004810192826200013357600085556200017e565b82601f106200014e57805160ff19168380011785556200017e565b828001600101855582156200017e579182015b828111156200017e57825182559160200191906001019062000161565b506200018c92915062000190565b5090565b5b808211156200018c576000815560010162000191565b600181811c90821680620001bc57607f821691505b60208210811415620001de57634e487b7160e01b600052602260045260246000fd5b50919050565b61261980620001f46000396000f3fe6080604052600436106101cc5760003560e01c806370a08231116100f7578063ad38ed4b11610095578063cec85ccf11610064578063cec85ccf14610546578063e985e9c514610559578063eb91d37e146105a2578063f2fde38b146105b757600080fd5b8063ad38ed4b146104b9578063b31d2322146104d9578063b88d4fde14610506578063c87b56dd1461052657600080fd5b80638cd49dfb116100d15780638cd49dfb146104465780638da5cb5b1461046657806395d89b4114610484578063a22cb4651461049957600080fd5b806370a08231146103f1578063715018a61461041157806378e57c351461042657600080fd5b806318160ddd1161016f5780632f745c591161013e5780632f745c591461037157806342842e0e146103915780634f6ccce7146103b15780636352211e146103d157600080fd5b806318160ddd146102f357806323b872dd146103085780632a29ad14146103285780632e1a7d4d1461035e57600080fd5b8063065bf7e3116101ab578063065bf7e31461024957806306fdde0314610279578063081812fc1461029b578063095ea7b3146102d357600080fd5b80629853ad146101d1578063015ca504146101e657806301ffc9a714610219575b600080fd5b6101e46101df366004612080565b6105d7565b005b3480156101f257600080fd5b50610206610201366004612080565b61071b565b6040519081526020015b60405180910390f35b34801561022557600080fd5b506102396102343660046120f1565b6107eb565b6040519015158152602001610210565b34801561025557600080fd5b5061023961026436600461210e565b60126020526000908152604090205460ff1681565b34801561028557600080fd5b5061028e6107fc565b604051610210919061217f565b3480156102a757600080fd5b506102bb6102b636600461210e565b61088e565b6040516001600160a01b039091168152602001610210565b3480156102df57600080fd5b506101e46102ee3660046121ae565b6108b5565b3480156102ff57600080fd5b50600854610206565b34801561031457600080fd5b506101e46103233660046121d8565b6109cb565b34801561033457600080fd5b506102bb61034336600461210e565b600f602052600090815260409020546001600160a01b031681565b6101e461036c36600461210e565b6109fc565b34801561037d57600080fd5b5061020661038c3660046121ae565b610a59565b34801561039d57600080fd5b506101e46103ac3660046121d8565b610aef565b3480156103bd57600080fd5b506102066103cc36600461210e565b610b0a565b3480156103dd57600080fd5b506102bb6103ec36600461210e565b610b9d565b3480156103fd57600080fd5b5061020661040c366004612214565b610bfd565b34801561041d57600080fd5b506101e4610c83565b34801561043257600080fd5b506101e461044136600461210e565b610c97565b34801561045257600080fd5b506101e461046136600461222f565b610d22565b34801561047257600080fd5b50600b546001600160a01b03166102bb565b34801561049057600080fd5b5061028e610ed3565b3480156104a557600080fd5b506101e46104b4366004612282565b610ee2565b3480156104c557600080fd5b506101e46104d436600461210e565b610ef1565b3480156104e557600080fd5b506102066104f436600461210e565b600e6020526000908152604090205481565b34801561051257600080fd5b506101e46105213660046122b5565b610f80565b34801561053257600080fd5b5061028e61054136600461210e565b610fb8565b610206610554366004612331565b610fc3565b34801561056557600080fd5b5061023961057436600461236d565b6001600160a01b03918216600090815260056020908152604080832093909416825291909152205460ff1690565b3480156105ae57600080fd5b50600d54610206565b3480156105c357600080fd5b506101e46105d2366004612214565b6110b5565b6000828152601360205260409020543410156106585760405162461bcd60e51b815260206004820152603560248201527f4e6f7420656e6f7567682066756e64732e20506c656173652c20636865636b2060448201527431bab93932b73a1030ba3a32b6b83a1039b4bd329760591b60648201526084015b60405180910390fd5b600082815260146020908152604080832054601390925282208054919283926106829084906123ad565b9091555050600083815260156020526040812080543492906106a59084906123ad565b9250508190555034601760008282546106be91906123ad565b9250508190555034601660008282546106d791906123ad565b90915550506040805184815234602082015233917fc7eaf6f4ca5d88afd8d3f27f59c152463c704ac37ecd1b3391be9b4a65632333910160405180910390a2505050565b60006107256110c9565b600d546107346103e8826123db565b600d5461074191906123ad565b600d556000848152600f6020526040902054610766906001600160a01b031685611123565b6107708484611271565b61077b600a826123db565b60008581526013602090815260408083209390935560148152828220849055600f8152908290205482518781529182018490526001600160a01b0316917f0cec0f8dc9537ba913422308f2a169d2f1248cc3e7dcab19ce34e07c3cf66ddc910160405180910390a2509192915050565b60006107f68261130b565b92915050565b60606000805461080b906123ef565b80601f0160208091040260200160405190810160405280929190818152602001828054610837906123ef565b80156108845780601f1061085957610100808354040283529160200191610884565b820191906000526020600020905b81548152906001019060200180831161086757829003601f168201915b5050505050905090565b600061089982611330565b506000908152600460205260409020546001600160a01b031690565b60006108c082610b9d565b9050806001600160a01b0316836001600160a01b0316141561092e5760405162461bcd60e51b815260206004820152602160248201527f4552433732313a20617070726f76616c20746f2063757272656e74206f776e656044820152603960f91b606482015260840161064f565b336001600160a01b038216148061094a575061094a8133610574565b6109bc5760405162461bcd60e51b815260206004820152603e60248201527f4552433732313a20617070726f76652063616c6c6572206973206e6f7420746f60448201527f6b656e206f776e6572206e6f7220617070726f76656420666f7220616c6c0000606482015260840161064f565b6109c6838361138f565b505050565b6109d533826113fd565b6109f15760405162461bcd60e51b815260040161064f9061242a565b6109c683838361147c565b610a046110c9565b600b546040516001600160a01b039091169082156108fc029083906000818181858888f19350505050158015610a3e573d6000803e3d6000fd5b508060166000828254610a519190612478565b909155505050565b6000610a6483610bfd565b8210610ac65760405162461bcd60e51b815260206004820152602b60248201527f455243373231456e756d657261626c653a206f776e657220696e646578206f7560448201526a74206f6620626f756e647360a81b606482015260840161064f565b506001600160a01b03919091166000908152600660209081526040808320938352929052205490565b6109c683838360405180602001604052806000815250610f80565b6000610b1560085490565b8210610b785760405162461bcd60e51b815260206004820152602c60248201527f455243373231456e756d657261626c653a20676c6f62616c20696e646578206f60448201526b7574206f6620626f756e647360a01b606482015260840161064f565b60088281548110610b8b57610b8b61248f565b90600052602060002001549050919050565b6000818152600260205260408120546001600160a01b0316806107f65760405162461bcd60e51b8152602060048201526018602482015277115490cdcc8c4e881a5b9d985b1a59081d1bdad95b88125160421b604482015260640161064f565b60006001600160a01b038216610c675760405162461bcd60e51b815260206004820152602960248201527f4552433732313a2061646472657373207a65726f206973206e6f7420612076616044820152683634b21037bbb732b960b91b606482015260840161064f565b506001600160a01b031660009081526003602052604090205490565b610c8b6110c9565b610c956000611623565b565b6000818152600f60205260409020546001600160a01b03163314610d075760405162461bcd60e51b815260206004820152602160248201527f4f6e6c79204e4654206f776e65722063616e20656e746572207468652047616d6044820152606560f81b606482015260840161064f565b6000908152601260205260409020805460ff19166001179055565b60008481526012602052604090205460ff16610d9e5760405162461bcd60e51b815260206004820152603560248201527f54686973204e4654206f776e65722064656369646564206e6f7420746f20706160448201527472746963697061746520696e207468652047616d6560581b606482015260840161064f565b60008433604051602001610dce92919091825260601b6bffffffffffffffffffffffff1916602082015260340190565b60405160208183030381529060405290506000610ded82868686611675565b9050610e01600b546001600160a01b031690565b6001600160a01b0316816001600160a01b031614610e89576040805162461bcd60e51b81526020600482015260248101919091527f5369676e617475726520696e636f72726563742e2044696420796f752061637460448201527f75616c6c792077696e20746f2074616b65206f7665722074686973204e46543f606482015260840161064f565b610e9c610e9587610b9d565b33886109cb565b336000908152601160205260408120805491610eb7836124a5565b9091555033600090815260116020526040902055505050505050565b60606001805461080b906123ef565b610eed338383611806565b5050565b6000818152600f60205260409020546001600160a01b03163314610f685760405162461bcd60e51b815260206004820152602860248201527f4f6e6c79206f776e65722063616e2074616b6520686973204e4654206f6666206044820152677468652047616d6560c01b606482015260840161064f565b6000908152601260205260409020805460ff19169055565b610f8a33836113fd565b610fa65760405162461bcd60e51b815260040161064f9061242a565b610fb2848484846118d5565b50505050565b60606107f682611908565b6000600d543410156110305760405162461bcd60e51b815260206004820152603060248201527f506c6561736520636865636b2063757272656e742070726963652c206974277360448201526f20616c7265616479206869676865722160801b606482015260840161064f565b61103e600c80546001019055565b6000611049600c5490565b6000818152600e60209081526040808320889055600f825280832080546001600160a01b0319166001600160a01b038b1617905560129091528120805460ff19168615151790556016805492935034929091906110a79084906123ad565b909155509095945050505050565b6110bd6110c9565b6110c6816110b5565b50565b600b546001600160a01b03163314610c955760405162461bcd60e51b815260206004820181905260248201527f4f776e61626c653a2063616c6c6572206973206e6f7420746865206f776e6572604482015260640161064f565b6001600160a01b0382166111795760405162461bcd60e51b815260206004820181905260248201527f4552433732313a206d696e7420746f20746865207a65726f2061646472657373604482015260640161064f565b6000818152600260205260409020546001600160a01b0316156111de5760405162461bcd60e51b815260206004820152601c60248201527f4552433732313a20746f6b656e20616c7265616479206d696e74656400000000604482015260640161064f565b6111ea60008383611a2e565b6001600160a01b03821660009081526003602052604081208054600192906112139084906123ad565b909155505060008181526002602052604080822080546001600160a01b0319166001600160a01b03861690811790915590518392907fddf252ad1be2c89b69c2b068fc378daa952ba7f163c4a11628f55a4df523b3ef908290a45050565b6000828152600260205260409020546001600160a01b03166112ec5760405162461bcd60e51b815260206004820152602e60248201527f45524337323155524953746f726167653a2055524920736574206f66206e6f6e60448201526d32bc34b9ba32b73a103a37b5b2b760911b606482015260840161064f565b6000828152600a6020908152604090912082516109c692840190611f5b565b60006001600160e01b0319821663780e9d6360e01b14806107f657506107f682611a39565b6000818152600260205260409020546001600160a01b03166110c65760405162461bcd60e51b8152602060048201526018602482015277115490cdcc8c4e881a5b9d985b1a59081d1bdad95b88125160421b604482015260640161064f565b600081815260046020526040902080546001600160a01b0319166001600160a01b03841690811790915581906113c482610b9d565b6001600160a01b03167f8c5be1e5ebec7d5bd14f71427d1e84f3dd0314c0f7b2291e5b200ac8c7c3b92560405160405180910390a45050565b60008061140983610b9d565b9050806001600160a01b0316846001600160a01b0316148061145057506001600160a01b0380821660009081526005602090815260408083209388168352929052205460ff165b806114745750836001600160a01b03166114698461088e565b6001600160a01b0316145b949350505050565b826001600160a01b031661148f82610b9d565b6001600160a01b0316146114f35760405162461bcd60e51b815260206004820152602560248201527f4552433732313a207472616e736665722066726f6d20696e636f72726563742060448201526437bbb732b960d91b606482015260840161064f565b6001600160a01b0382166115555760405162461bcd60e51b8152602060048201526024808201527f4552433732313a207472616e7366657220746f20746865207a65726f206164646044820152637265737360e01b606482015260840161064f565b611560838383611a2e565b61156b60008261138f565b6001600160a01b0383166000908152600360205260408120805460019290611594908490612478565b90915550506001600160a01b03821660009081526003602052604081208054600192906115c29084906123ad565b909155505060008181526002602052604080822080546001600160a01b0319166001600160a01b0386811691821790925591518493918716917fddf252ad1be2c89b69c2b068fc378daa952ba7f163c4a11628f55a4df523b3ef91a4505050565b600b80546001600160a01b038381166001600160a01b0319831681179093556040519116919082907f8be0079c531659141344cd1fd0a4f28419497f9722a3daafe3b4186f6b6457e090600090a35050565b6040805180820190915260208082527f19457468657265756d205369676e6564204d6573736167653a0a303030303030908201528451600091906039820190620f423f8111156116c457600080fd5b6000620186a05b80156117505760006116dd82856123db565b9050806116fc57826116fc576116f4600a836123db565b9150506116cb565b82611706816124a5565b9350611714905082826124c0565b61171e9085612478565b935061172b600a836123db565b91506117386030826123ad565b905084611744816124a5565b955050808553506116cb565b8161175e57601b915061176c565b611769601a836123ad565b91505b8185526000858b6040516020016117849291906124df565b60408051601f1981840301815282825280516020918201206000845290830180835281905260ff8d1691830191909152606082018b9052608082018a9052915060019060a0016020604051602081039080840390855afa1580156117ec573d6000803e3d6000fd5b5050604051601f1901519c9b505050505050505050505050565b816001600160a01b0316836001600160a01b031614156118685760405162461bcd60e51b815260206004820152601960248201527f4552433732313a20617070726f766520746f2063616c6c657200000000000000604482015260640161064f565b6001600160a01b03838116600081815260056020908152604080832094871680845294825291829020805460ff191686151590811790915591519182527f17307eab39ab6107e8899845ad3d59bd9653f200f220920489ca2b5937696c31910160405180910390a3505050565b6118e084848461147c565b6118ec84848484611a89565b610fb25760405162461bcd60e51b815260040161064f9061250e565b606061191382611330565b6000828152600a60205260408120805461192c906123ef565b80601f0160208091040260200160405190810160405280929190818152602001828054611958906123ef565b80156119a55780601f1061197a576101008083540402835291602001916119a5565b820191906000526020600020905b81548152906001019060200180831161198857829003601f168201915b5050505050905060006119e060408051808201909152601581527468747470733a2f2f697066732e696f2f697066732f60581b602082015290565b90508051600014156119f3575092915050565b815115611a25578082604051602001611a0d9291906124df565b60405160208183030381529060405292505050919050565b61147484611b84565b6109c6838383611c15565b60006001600160e01b031982166380ac58cd60e01b1480611a6a57506001600160e01b03198216635b5e139f60e01b145b806107f657506301ffc9a760e01b6001600160e01b03198316146107f6565b60006001600160a01b0384163b15611b7c57604051630a85bd0160e11b81526001600160a01b0385169063150b7a0290611acd903390899088908890600401612560565b6020604051808303816000875af1925050508015611b08575060408051601f3d908101601f19168201909252611b059181019061259c565b60015b611b62573d808015611b36576040519150601f19603f3d011682016040523d82523d6000602084013e611b3b565b606091505b508051611b5a5760405162461bcd60e51b815260040161064f9061250e565b805181602001fd5b6001600160e01b031916630a85bd0160e11b149050611474565b506001611474565b6060611b8f82611330565b6000611bc360408051808201909152601581527468747470733a2f2f697066732e696f2f697066732f60581b602082015290565b90506000815111611be35760405180602001604052806000815250611c0e565b80611bed84611ccd565b604051602001611bfe9291906124df565b6040516020818303038152906040525b9392505050565b6001600160a01b038316611c7057611c6b81600880546000838152600960205260408120829055600182018355919091527ff3f7a9fe364faab93b216da50a3214154f22a0a2b415b23a84c8169e8b636ee30155565b611c93565b816001600160a01b0316836001600160a01b031614611c9357611c938382611dcb565b6001600160a01b038216611caa576109c681611e68565b826001600160a01b0316826001600160a01b0316146109c6576109c68282611f17565b606081611cf15750506040805180820190915260018152600360fc1b602082015290565b8160005b8115611d1b5780611d05816124a5565b9150611d149050600a836123db565b9150611cf5565b60008167ffffffffffffffff811115611d3657611d36611ff4565b6040519080825280601f01601f191660200182016040528015611d60576020820181803683370190505b5090505b841561147457611d75600183612478565b9150611d82600a866125b9565b611d8d9060306123ad565b60f81b818381518110611da257611da261248f565b60200101906001600160f81b031916908160001a905350611dc4600a866123db565b9450611d64565b60006001611dd884610bfd565b611de29190612478565b600083815260076020526040902054909150808214611e35576001600160a01b03841660009081526006602090815260408083208584528252808320548484528184208190558352600790915290208190555b5060009182526007602090815260408084208490556001600160a01b039094168352600681528383209183525290812055565b600854600090611e7a90600190612478565b60008381526009602052604081205460088054939450909284908110611ea257611ea261248f565b906000526020600020015490508060088381548110611ec357611ec361248f565b6000918252602080832090910192909255828152600990915260408082208490558582528120556008805480611efb57611efb6125cd565b6001900381819060005260206000200160009055905550505050565b6000611f2283610bfd565b6001600160a01b039093166000908152600660209081526040808320868452825280832085905593825260079052919091209190915550565b828054611f67906123ef565b90600052602060002090601f016020900481019282611f895760008555611fcf565b82601f10611fa257805160ff1916838001178555611fcf565b82800160010185558215611fcf579182015b82811115611fcf578251825591602001919060010190611fb4565b50611fdb929150611fdf565b5090565b5b80821115611fdb5760008155600101611fe0565b634e487b7160e01b600052604160045260246000fd5b600067ffffffffffffffff8084111561202557612025611ff4565b604051601f8501601f19908116603f0116810190828211818310171561204d5761204d611ff4565b8160405280935085815286868601111561206657600080fd5b858560208301376000602087830101525050509392505050565b6000806040838503121561209357600080fd5b82359150602083013567ffffffffffffffff8111156120b157600080fd5b8301601f810185136120c257600080fd5b6120d18582356020840161200a565b9150509250929050565b6001600160e01b0319811681146110c657600080fd5b60006020828403121561210357600080fd5b8135611c0e816120db565b60006020828403121561212057600080fd5b5035919050565b60005b8381101561214257818101518382015260200161212a565b83811115610fb25750506000910152565b6000815180845261216b816020860160208601612127565b601f01601f19169290920160200192915050565b602081526000611c0e6020830184612153565b80356001600160a01b03811681146121a957600080fd5b919050565b600080604083850312156121c157600080fd5b6121ca83612192565b946020939093013593505050565b6000806000606084860312156121ed57600080fd5b6121f684612192565b925061220460208501612192565b9150604084013590509250925092565b60006020828403121561222657600080fd5b611c0e82612192565b6000806000806080858703121561224557600080fd5b84359350602085013560ff8116811461225d57600080fd5b93969395505050506040820135916060013590565b803580151581146121a957600080fd5b6000806040838503121561229557600080fd5b61229e83612192565b91506122ac60208401612272565b90509250929050565b600080600080608085870312156122cb57600080fd5b6122d485612192565b93506122e260208601612192565b925060408501359150606085013567ffffffffffffffff81111561230557600080fd5b8501601f8101871361231657600080fd5b6123258782356020840161200a565b91505092959194509250565b60008060006060848603121561234657600080fd5b61234f84612192565b92506020840135915061236460408501612272565b90509250925092565b6000806040838503121561238057600080fd5b61238983612192565b91506122ac60208401612192565b634e487b7160e01b600052601160045260246000fd5b600082198211156123c0576123c0612397565b500190565b634e487b7160e01b600052601260045260246000fd5b6000826123ea576123ea6123c5565b500490565b600181811c9082168061240357607f821691505b6020821081141561242457634e487b7160e01b600052602260045260246000fd5b50919050565b6020808252602e908201527f4552433732313a2063616c6c6572206973206e6f7420746f6b656e206f776e6560408201526d1c881b9bdc88185c1c1c9bdd995960921b606082015260800190565b60008282101561248a5761248a612397565b500390565b634e487b7160e01b600052603260045260246000fd5b60006000198214156124b9576124b9612397565b5060010190565b60008160001904831182151516156124da576124da612397565b500290565b600083516124f1818460208801612127565b835190830190612505818360208801612127565b01949350505050565b60208082526032908201527f4552433732313a207472616e7366657220746f206e6f6e20455243373231526560408201527131b2b4bb32b91034b6b83632b6b2b73a32b960711b606082015260800190565b60006001600160a01b038087168352808616602084015250836040830152608060608301526125926080830184612153565b9695505050505050565b6000602082840312156125ae57600080fd5b8151611c0e816120db565b6000826125c8576125c86123c5565b500690565b634e487b7160e01b600052603160045260246000fdfea2646970667358221220f9f2ed8fbdaef9bab3f0593681b058916f28ebaa33074db8211e90e1a61223ea64736f6c634300080a0033",
  "linkReferences": {},
  "deployedLinkReferences": {}
}