{
  "_format": "hh-sol-artifact-1",
  "contractName": "DixiNFT",
  "sourceName": "contracts/DixiNFT.sol",
  "abi": [
    {
      "inputs": [],
      "stateMutability": "nonpayable",
      "type": "constructor"
    },
    {
      "anonymous": false,
      "inputs": [
        {
          "indexed": true,
          "internalType": "address",
          "name": "owner",
          "type": "address"
        },
        {
          "indexed": true,
          "internalType": "address",
          "name": "approved",
          "type": "address"
        },
        {
          "indexed": true,
          "internalType": "uint256",
          "name": "tokenId",
          "type": "uint256"
        }
      ],
      "name": "Approval",
      "type": "event"
    },
    {
      "anonymous": false,
      "inputs": [
        {
          "indexed": true,
          "internalType": "address",
          "name": "owner",
          "type": "address"
        },
        {
          "indexed": true,
          "internalType": "address",
          "name": "operator",
          "type": "address"
        },
        {
          "indexed": false,
          "internalType": "bool",
          "name": "approved",
          "type": "bool"
        }
      ],
      "name": "ApprovalForAll",
      "type": "event"
    },
    {
      "anonymous": false,
      "inputs": [
        {
          "indexed": true,
          "internalType": "address",
          "name": "sender",
          "type": "address"
        },
        {
          "indexed": false,
          "internalType": "uint256",
          "name": "id",
          "type": "uint256"
        },
        {
          "indexed": false,
          "internalType": "uint256",
          "name": "amount",
          "type": "uint256"
        }
      ],
      "name": "AttmeptLog",
      "type": "event"
    },
    {
      "anonymous": false,
      "inputs": [
        {
          "indexed": true,
          "internalType": "address",
          "name": "sender",
          "type": "address"
        },
        {
          "indexed": false,
          "internalType": "uint256",
          "name": "id",
          "type": "uint256"
        },
        {
          "indexed": false,
          "internalType": "uint256",
          "name": "amount",
          "type": "uint256"
        }
      ],
      "name": "MintLog",
      "type": "event"
    },
    {
      "anonymous": false,
      "inputs": [
        {
          "indexed": true,
          "internalType": "address",
          "name": "previousOwner",
          "type": "address"
        },
        {
          "indexed": true,
          "internalType": "address",
          "name": "newOwner",
          "type": "address"
        }
      ],
      "name": "OwnershipTransferred",
      "type": "event"
    },
    {
      "anonymous": false,
      "inputs": [
        {
          "indexed": true,
          "internalType": "address",
          "name": "from",
          "type": "address"
        },
        {
          "indexed": true,
          "internalType": "address",
          "name": "to",
          "type": "address"
        },
        {
          "indexed": true,
          "internalType": "uint256",
          "name": "tokenId",
          "type": "uint256"
        }
      ],
      "name": "Transfer",
      "type": "event"
    },
    {
      "inputs": [
        {
          "internalType": "uint256",
          "name": "",
          "type": "uint256"
        }
      ],
      "name": "_gameParticipation",
      "outputs": [
        {
          "internalType": "bool",
          "name": "",
          "type": "bool"
        }
      ],
      "stateMutability": "view",
      "type": "function"
    },
    {
      "inputs": [
        {
          "internalType": "uint256",
          "name": "",
          "type": "uint256"
        }
      ],
      "name": "_inputHashes",
      "outputs": [
        {
          "internalType": "bytes32",
          "name": "",
          "type": "bytes32"
        }
      ],
      "stateMutability": "view",
      "type": "function"
    },
    {
      "inputs": [
        {
          "internalType": "uint256",
          "name": "",
          "type": "uint256"
        }
      ],
      "name": "_minters",
      "outputs": [
        {
          "internalType": "address",
          "name": "",
          "type": "address"
        }
      ],
      "stateMutability": "view",
      "type": "function"
    },
    {
      "inputs": [
        {
          "internalType": "address",
          "name": "to",
          "type": "address"
        },
        {
          "internalType": "uint256",
          "name": "tokenId",
          "type": "uint256"
        }
      ],
      "name": "approve",
      "outputs": [],
      "stateMutability": "nonpayable",
      "type": "function"
    },
    {
      "inputs": [
        {
          "internalType": "address",
          "name": "owner",
          "type": "address"
        }
      ],
      "name": "balanceOf",
      "outputs": [
        {
          "internalType": "uint256",
          "name": "",
          "type": "uint256"
        }
      ],
      "stateMutability": "view",
      "type": "function"
    },
    {
      "inputs": [
        {
          "internalType": "uint256",
          "name": "id",
          "type": "uint256"
        }
      ],
      "name": "enterTheGame",
      "outputs": [],
      "stateMutability": "nonpayable",
      "type": "function"
    },
    {
      "inputs": [
        {
          "internalType": "uint256",
          "name": "id",
          "type": "uint256"
        }
      ],
      "name": "exitGame",
      "outputs": [],
      "stateMutability": "nonpayable",
      "type": "function"
    },
    {
      "inputs": [
        {
          "internalType": "uint256",
          "name": "tokenId",
          "type": "uint256"
        }
      ],
      "name": "getApproved",
      "outputs": [
        {
          "internalType": "address",
          "name": "",
          "type": "address"
        }
      ],
      "stateMutability": "view",
      "type": "function"
    },
    {
      "inputs": [],
      "name": "getCurrentMintPrice",
      "outputs": [
        {
          "internalType": "uint256",
          "name": "",
          "type": "uint256"
        }
      ],
      "stateMutability": "view",
      "type": "function"
    },
    {
      "inputs": [
        {
          "internalType": "address",
          "name": "owner",
          "type": "address"
        },
        {
          "internalType": "address",
          "name": "operator",
          "type": "address"
        }
      ],
      "name": "isApprovedForAll",
      "outputs": [
        {
          "internalType": "bool",
          "name": "",
          "type": "bool"
        }
      ],
      "stateMutability": "view",
      "type": "function"
    },
    {
      "inputs": [
        {
          "internalType": "uint256",
          "name": "id",
          "type": "uint256"
        },
        {
          "internalType": "string",
          "name": "ipfsTokenUri",
          "type": "string"
        }
      ],
      "name": "mintFinalize",
      "outputs": [
        {
          "internalType": "uint256",
          "name": "",
          "type": "uint256"
        }
      ],
      "stateMutability": "nonpayable",
      "type": "function"
    },
    {
      "inputs": [
        {
          "internalType": "address",
          "name": "to",
          "type": "address"
        },
        {
          "internalType": "bytes32",
          "name": "inputHash",
          "type": "bytes32"
        },
        {
          "internalType": "bool",
          "name": "enterGame",
          "type": "bool"
        }
      ],
      "name": "mintItem",
      "outputs": [
        {
          "internalType": "uint256",
          "name": "",
          "type": "uint256"
        }
      ],
      "stateMutability": "payable",
      "type": "function"
    },
    {
      "inputs": [],
      "name": "name",
      "outputs": [
        {
          "internalType": "string",
          "name": "",
          "type": "string"
        }
      ],
      "stateMutability": "view",
      "type": "function"
    },
    {
      "inputs": [],
      "name": "owner",
      "outputs": [
        {
          "internalType": "address",
          "name": "",
          "type": "address"
        }
      ],
      "stateMutability": "view",
      "type": "function"
    },
    {
      "inputs": [
        {
          "internalType": "uint256",
          "name": "tokenId",
          "type": "uint256"
        }
      ],
      "name": "ownerOf",
      "outputs": [
        {
          "internalType": "address",
          "name": "",
          "type": "address"
        }
      ],
      "stateMutability": "view",
      "type": "function"
    },
    {
      "inputs": [],
      "name": "renounceOwnership",
      "outputs": [],
      "stateMutability": "nonpayable",
      "type": "function"
    },
    {
      "inputs": [
        {
          "internalType": "address",
          "name": "from",
          "type": "address"
        },
        {
          "internalType": "address",
          "name": "to",
          "type": "address"
        },
        {
          "internalType": "uint256",
          "name": "tokenId",
          "type": "uint256"
        }
      ],
      "name": "safeTransferFrom",
      "outputs": [],
      "stateMutability": "nonpayable",
      "type": "function"
    },
    {
      "inputs": [
        {
          "internalType": "address",
          "name": "from",
          "type": "address"
        },
        {
          "internalType": "address",
          "name": "to",
          "type": "address"
        },
        {
          "internalType": "uint256",
          "name": "tokenId",
          "type": "uint256"
        },
        {
          "internalType": "bytes",
          "name": "data",
          "type": "bytes"
        }
      ],
      "name": "safeTransferFrom",
      "outputs": [],
      "stateMutability": "nonpayable",
      "type": "function"
    },
    {
      "inputs": [
        {
          "internalType": "address",
          "name": "operator",
          "type": "address"
        },
        {
          "internalType": "bool",
          "name": "approved",
          "type": "bool"
        }
      ],
      "name": "setApprovalForAll",
      "outputs": [],
      "stateMutability": "nonpayable",
      "type": "function"
    },
    {
      "inputs": [
        {
          "internalType": "bytes4",
          "name": "interfaceId",
          "type": "bytes4"
        }
      ],
      "name": "supportsInterface",
      "outputs": [
        {
          "internalType": "bool",
          "name": "",
          "type": "bool"
        }
      ],
      "stateMutability": "view",
      "type": "function"
    },
    {
      "inputs": [],
      "name": "symbol",
      "outputs": [
        {
          "internalType": "string",
          "name": "",
          "type": "string"
        }
      ],
      "stateMutability": "view",
      "type": "function"
    },
    {
      "inputs": [
        {
          "internalType": "uint256",
          "name": "id",
          "type": "uint256"
        },
        {
          "internalType": "uint8",
          "name": "v",
          "type": "uint8"
        },
        {
          "internalType": "bytes32",
          "name": "r",
          "type": "bytes32"
        },
        {
          "internalType": "bytes32",
          "name": "s",
          "type": "bytes32"
        }
      ],
      "name": "takeOver",
      "outputs": [],
      "stateMutability": "nonpayable",
      "type": "function"
    },
    {
      "inputs": [],
      "name": "test",
      "outputs": [
        {
          "internalType": "uint256",
          "name": "",
          "type": "uint256"
        }
      ],
      "stateMutability": "view",
      "type": "function"
    },
    {
      "inputs": [
        {
          "internalType": "uint256",
          "name": "index",
          "type": "uint256"
        }
      ],
      "name": "tokenByIndex",
      "outputs": [
        {
          "internalType": "uint256",
          "name": "",
          "type": "uint256"
        }
      ],
      "stateMutability": "view",
      "type": "function"
    },
    {
      "inputs": [
        {
          "internalType": "address",
          "name": "owner",
          "type": "address"
        },
        {
          "internalType": "uint256",
          "name": "index",
          "type": "uint256"
        }
      ],
      "name": "tokenOfOwnerByIndex",
      "outputs": [
        {
          "internalType": "uint256",
          "name": "",
          "type": "uint256"
        }
      ],
      "stateMutability": "view",
      "type": "function"
    },
    {
      "inputs": [
        {
          "internalType": "uint256",
          "name": "tokenId",
          "type": "uint256"
        }
      ],
      "name": "tokenURI",
      "outputs": [
        {
          "internalType": "string",
          "name": "",
          "type": "string"
        }
      ],
      "stateMutability": "view",
      "type": "function"
    },
    {
      "inputs": [],
      "name": "totalSupply",
      "outputs": [
        {
          "internalType": "uint256",
          "name": "",
          "type": "uint256"
        }
      ],
      "stateMutability": "view",
      "type": "function"
    },
    {
      "inputs": [
        {
          "internalType": "address",
          "name": "from",
          "type": "address"
        },
        {
          "internalType": "address",
          "name": "to",
          "type": "address"
        },
        {
          "internalType": "uint256",
          "name": "tokenId",
          "type": "uint256"
        }
      ],
      "name": "transferFrom",
      "outputs": [],
      "stateMutability": "nonpayable",
      "type": "function"
    },
    {
      "inputs": [
        {
          "internalType": "address",
          "name": "owner",
          "type": "address"
        }
      ],
      "name": "transferOwnership",
      "outputs": [],
      "stateMutability": "nonpayable",
      "type": "function"
    },
    {
      "inputs": [
        {
          "internalType": "uint256",
          "name": "id",
          "type": "uint256"
        },
        {
          "internalType": "string",
          "name": "phrase",
          "type": "string"
        }
      ],
      "name": "tryGuess",
      "outputs": [],
      "stateMutability": "payable",
      "type": "function"
    },
    {
      "inputs": [
        {
          "internalType": "uint256",
          "name": "amount",
          "type": "uint256"
        }
      ],
      "name": "withdraw",
      "outputs": [],
      "stateMutability": "payable",
      "type": "function"
    }
  ],
  "bytecode": "0x6080604052670de0b6b3a7640000600d553480156200001d57600080fd5b506040805180820182526007815266111a5e1a53919560ca1b6020808301918252835180850190945260048452634449584960e01b90840152815191929162000069916000916200010e565b5080516200007f9060019060208401906200010e565b5050506200009c62000096620000b860201b60201c565b620000bc565b670de0b6b3a7640000600d5560006016819055601755620001f1565b3390565b600b80546001600160a01b038381166001600160a01b0319831681179093556040519116919082907f8be0079c531659141344cd1fd0a4f28419497f9722a3daafe3b4186f6b6457e090600090a35050565b8280546200011c90620001b4565b90600052602060002090601f0160209004810192826200014057600085556200018b565b82601f106200015b57805160ff19168380011785556200018b565b828001600101855582156200018b579182015b828111156200018b5782518255916020019190600101906200016e565b50620001999291506200019d565b5090565b5b808211156200019957600081556001016200019e565b600181811c90821680620001c957607f821691505b60208210811415620001eb57634e487b7160e01b600052602260045260246000fd5b50919050565b61264080620002016000396000f3fe6080604052600436106101d75760003560e01c806370a0823111610102578063b31d232211610095578063e82ded2111610064578063e82ded2114610564578063e985e9c514610579578063f2fde38b146105c2578063f8a8fd6d146105e257600080fd5b8063b31d2322146104e4578063b88d4fde14610511578063c87b56dd14610531578063cec85ccf1461055157600080fd5b80638da5cb5b116100d15780638da5cb5b1461047157806395d89b411461048f578063a22cb465146104a4578063ad38ed4b146104c457600080fd5b806370a08231146103fc578063715018a61461041c57806378e57c35146104315780638cd49dfb1461045157600080fd5b806318160ddd1161017a5780632f745c59116101495780632f745c591461037c57806342842e0e1461039c5780634f6ccce7146103bc5780636352211e146103dc57600080fd5b806318160ddd146102fe57806323b872dd146103135780632a29ad14146103335780632e1a7d4d1461036957600080fd5b8063065bf7e3116101b6578063065bf7e31461025457806306fdde0314610284578063081812fc146102a6578063095ea7b3146102de57600080fd5b80629853ad146101dc578063015ca504146101f157806301ffc9a714610224575b600080fd5b6101ef6101ea3660046120a7565b6105fe565b005b3480156101fd57600080fd5b5061021161020c3660046120a7565b610742565b6040519081526020015b60405180910390f35b34801561023057600080fd5b5061024461023f366004612118565b610812565b604051901515815260200161021b565b34801561026057600080fd5b5061024461026f366004612135565b60126020526000908152604090205460ff1681565b34801561029057600080fd5b50610299610823565b60405161021b91906121a6565b3480156102b257600080fd5b506102c66102c1366004612135565b6108b5565b6040516001600160a01b03909116815260200161021b565b3480156102ea57600080fd5b506101ef6102f93660046121d5565b6108dc565b34801561030a57600080fd5b50600854610211565b34801561031f57600080fd5b506101ef61032e3660046121ff565b6109f2565b34801561033f57600080fd5b506102c661034e366004612135565b600f602052600090815260409020546001600160a01b031681565b6101ef610377366004612135565b610a23565b34801561038857600080fd5b506102116103973660046121d5565b610a80565b3480156103a857600080fd5b506101ef6103b73660046121ff565b610b16565b3480156103c857600080fd5b506102116103d7366004612135565b610b31565b3480156103e857600080fd5b506102c66103f7366004612135565b610bc4565b34801561040857600080fd5b5061021161041736600461223b565b610c24565b34801561042857600080fd5b506101ef610caa565b34801561043d57600080fd5b506101ef61044c366004612135565b610cbe565b34801561045d57600080fd5b506101ef61046c366004612256565b610d49565b34801561047d57600080fd5b50600b546001600160a01b03166102c6565b34801561049b57600080fd5b50610299610efa565b3480156104b057600080fd5b506101ef6104bf3660046122a9565b610f09565b3480156104d057600080fd5b506101ef6104df366004612135565b610f18565b3480156104f057600080fd5b506102116104ff366004612135565b600e6020526000908152604090205481565b34801561051d57600080fd5b506101ef61052c3660046122dc565b610fa7565b34801561053d57600080fd5b5061029961054c366004612135565b610fdf565b61021161055f366004612358565b610fea565b34801561057057600080fd5b50600d54610211565b34801561058557600080fd5b50610244610594366004612394565b6001600160a01b03918216600090815260056020908152604080832093909416825291909152205460ff1690565b3480156105ce57600080fd5b506101ef6105dd36600461223b565b6110dc565b3480156105ee57600080fd5b506801c9f78d2893e40000610211565b60008281526013602052604090205434101561067f5760405162461bcd60e51b815260206004820152603560248201527f4e6f7420656e6f7567682066756e64732e20506c656173652c20636865636b2060448201527431bab93932b73a1030ba3a32b6b83a1039b4bd329760591b60648201526084015b60405180910390fd5b600082815260146020908152604080832054601390925282208054919283926106a99084906123d4565b9091555050600083815260156020526040812080543492906106cc9084906123d4565b9250508190555034601760008282546106e591906123d4565b9250508190555034601660008282546106fe91906123d4565b90915550506040805184815234602082015233917fc7eaf6f4ca5d88afd8d3f27f59c152463c704ac37ecd1b3391be9b4a65632333910160405180910390a2505050565b600061074c6110f0565b600d5461075b6103e882612402565b600d5461076891906123d4565b600d556000848152600f602052604090205461078d906001600160a01b03168561114a565b6107978484611298565b6107a2600a82612402565b60008581526013602090815260408083209390935560148152828220849055600f8152908290205482518781529182018490526001600160a01b0316917f0cec0f8dc9537ba913422308f2a169d2f1248cc3e7dcab19ce34e07c3cf66ddc910160405180910390a2509192915050565b600061081d82611332565b92915050565b60606000805461083290612416565b80601f016020809104026020016040519081016040528092919081815260200182805461085e90612416565b80156108ab5780601f10610880576101008083540402835291602001916108ab565b820191906000526020600020905b81548152906001019060200180831161088e57829003601f168201915b5050505050905090565b60006108c082611357565b506000908152600460205260409020546001600160a01b031690565b60006108e782610bc4565b9050806001600160a01b0316836001600160a01b031614156109555760405162461bcd60e51b815260206004820152602160248201527f4552433732313a20617070726f76616c20746f2063757272656e74206f776e656044820152603960f91b6064820152608401610676565b336001600160a01b038216148061097157506109718133610594565b6109e35760405162461bcd60e51b815260206004820152603e60248201527f4552433732313a20617070726f76652063616c6c6572206973206e6f7420746f60448201527f6b656e206f776e6572206e6f7220617070726f76656420666f7220616c6c00006064820152608401610676565b6109ed83836113b6565b505050565b6109fc3382611424565b610a185760405162461bcd60e51b815260040161067690612451565b6109ed8383836114a3565b610a2b6110f0565b600b546040516001600160a01b039091169082156108fc029083906000818181858888f19350505050158015610a65573d6000803e3d6000fd5b508060166000828254610a78919061249f565b909155505050565b6000610a8b83610c24565b8210610aed5760405162461bcd60e51b815260206004820152602b60248201527f455243373231456e756d657261626c653a206f776e657220696e646578206f7560448201526a74206f6620626f756e647360a81b6064820152608401610676565b506001600160a01b03919091166000908152600660209081526040808320938352929052205490565b6109ed83838360405180602001604052806000815250610fa7565b6000610b3c60085490565b8210610b9f5760405162461bcd60e51b815260206004820152602c60248201527f455243373231456e756d657261626c653a20676c6f62616c20696e646578206f60448201526b7574206f6620626f756e647360a01b6064820152608401610676565b60088281548110610bb257610bb26124b6565b90600052602060002001549050919050565b6000818152600260205260408120546001600160a01b03168061081d5760405162461bcd60e51b8152602060048201526018602482015277115490cdcc8c4e881a5b9d985b1a59081d1bdad95b88125160421b6044820152606401610676565b60006001600160a01b038216610c8e5760405162461bcd60e51b815260206004820152602960248201527f4552433732313a2061646472657373207a65726f206973206e6f7420612076616044820152683634b21037bbb732b960b91b6064820152608401610676565b506001600160a01b031660009081526003602052604090205490565b610cb26110f0565b610cbc600061164a565b565b6000818152600f60205260409020546001600160a01b03163314610d2e5760405162461bcd60e51b815260206004820152602160248201527f4f6e6c79204e4654206f776e65722063616e20656e746572207468652047616d6044820152606560f81b6064820152608401610676565b6000908152601260205260409020805460ff19166001179055565b60008481526012602052604090205460ff16610dc55760405162461bcd60e51b815260206004820152603560248201527f54686973204e4654206f776e65722064656369646564206e6f7420746f20706160448201527472746963697061746520696e207468652047616d6560581b6064820152608401610676565b60008433604051602001610df592919091825260601b6bffffffffffffffffffffffff1916602082015260340190565b60405160208183030381529060405290506000610e148286868661169c565b9050610e28600b546001600160a01b031690565b6001600160a01b0316816001600160a01b031614610eb0576040805162461bcd60e51b81526020600482015260248101919091527f5369676e617475726520696e636f72726563742e2044696420796f752061637460448201527f75616c6c792077696e20746f2074616b65206f7665722074686973204e46543f6064820152608401610676565b610ec3610ebc87610bc4565b33886109f2565b336000908152601160205260408120805491610ede836124cc565b9091555033600090815260116020526040902055505050505050565b60606001805461083290612416565b610f1433838361182d565b5050565b6000818152600f60205260409020546001600160a01b03163314610f8f5760405162461bcd60e51b815260206004820152602860248201527f4f6e6c79206f776e65722063616e2074616b6520686973204e4654206f6666206044820152677468652047616d6560c01b6064820152608401610676565b6000908152601260205260409020805460ff19169055565b610fb13383611424565b610fcd5760405162461bcd60e51b815260040161067690612451565b610fd9848484846118fc565b50505050565b606061081d8261192f565b6000600d543410156110575760405162461bcd60e51b815260206004820152603060248201527f506c6561736520636865636b2063757272656e742070726963652c206974277360448201526f20616c7265616479206869676865722160801b6064820152608401610676565b611065600c80546001019055565b6000611070600c5490565b6000818152600e60209081526040808320889055600f825280832080546001600160a01b0319166001600160a01b038b1617905560129091528120805460ff19168615151790556016805492935034929091906110ce9084906123d4565b909155509095945050505050565b6110e46110f0565b6110ed816110dc565b50565b600b546001600160a01b03163314610cbc5760405162461bcd60e51b815260206004820181905260248201527f4f776e61626c653a2063616c6c6572206973206e6f7420746865206f776e65726044820152606401610676565b6001600160a01b0382166111a05760405162461bcd60e51b815260206004820181905260248201527f4552433732313a206d696e7420746f20746865207a65726f20616464726573736044820152606401610676565b6000818152600260205260409020546001600160a01b0316156112055760405162461bcd60e51b815260206004820152601c60248201527f4552433732313a20746f6b656e20616c7265616479206d696e746564000000006044820152606401610676565b61121160008383611a55565b6001600160a01b038216600090815260036020526040812080546001929061123a9084906123d4565b909155505060008181526002602052604080822080546001600160a01b0319166001600160a01b03861690811790915590518392907fddf252ad1be2c89b69c2b068fc378daa952ba7f163c4a11628f55a4df523b3ef908290a45050565b6000828152600260205260409020546001600160a01b03166113135760405162461bcd60e51b815260206004820152602e60248201527f45524337323155524953746f726167653a2055524920736574206f66206e6f6e60448201526d32bc34b9ba32b73a103a37b5b2b760911b6064820152608401610676565b6000828152600a6020908152604090912082516109ed92840190611f82565b60006001600160e01b0319821663780e9d6360e01b148061081d575061081d82611a60565b6000818152600260205260409020546001600160a01b03166110ed5760405162461bcd60e51b8152602060048201526018602482015277115490cdcc8c4e881a5b9d985b1a59081d1bdad95b88125160421b6044820152606401610676565b600081815260046020526040902080546001600160a01b0319166001600160a01b03841690811790915581906113eb82610bc4565b6001600160a01b03167f8c5be1e5ebec7d5bd14f71427d1e84f3dd0314c0f7b2291e5b200ac8c7c3b92560405160405180910390a45050565b60008061143083610bc4565b9050806001600160a01b0316846001600160a01b0316148061147757506001600160a01b0380821660009081526005602090815260408083209388168352929052205460ff165b8061149b5750836001600160a01b0316611490846108b5565b6001600160a01b0316145b949350505050565b826001600160a01b03166114b682610bc4565b6001600160a01b03161461151a5760405162461bcd60e51b815260206004820152602560248201527f4552433732313a207472616e736665722066726f6d20696e636f72726563742060448201526437bbb732b960d91b6064820152608401610676565b6001600160a01b03821661157c5760405162461bcd60e51b8152602060048201526024808201527f4552433732313a207472616e7366657220746f20746865207a65726f206164646044820152637265737360e01b6064820152608401610676565b611587838383611a55565b6115926000826113b6565b6001600160a01b03831660009081526003602052604081208054600192906115bb90849061249f565b90915550506001600160a01b03821660009081526003602052604081208054600192906115e99084906123d4565b909155505060008181526002602052604080822080546001600160a01b0319166001600160a01b0386811691821790925591518493918716917fddf252ad1be2c89b69c2b068fc378daa952ba7f163c4a11628f55a4df523b3ef91a4505050565b600b80546001600160a01b038381166001600160a01b0319831681179093556040519116919082907f8be0079c531659141344cd1fd0a4f28419497f9722a3daafe3b4186f6b6457e090600090a35050565b6040805180820190915260208082527f19457468657265756d205369676e6564204d6573736167653a0a303030303030908201528451600091906039820190620f423f8111156116eb57600080fd5b6000620186a05b80156117775760006117048285612402565b90508061172357826117235761171b600a83612402565b9150506116f2565b8261172d816124cc565b935061173b905082826124e7565b611745908561249f565b9350611752600a83612402565b915061175f6030826123d4565b90508461176b816124cc565b955050808553506116f2565b8161178557601b9150611793565b611790601a836123d4565b91505b8185526000858b6040516020016117ab929190612506565b60408051601f1981840301815282825280516020918201206000845290830180835281905260ff8d1691830191909152606082018b9052608082018a9052915060019060a0016020604051602081039080840390855afa158015611813573d6000803e3d6000fd5b5050604051601f1901519c9b505050505050505050505050565b816001600160a01b0316836001600160a01b0316141561188f5760405162461bcd60e51b815260206004820152601960248201527f4552433732313a20617070726f766520746f2063616c6c6572000000000000006044820152606401610676565b6001600160a01b03838116600081815260056020908152604080832094871680845294825291829020805460ff191686151590811790915591519182527f17307eab39ab6107e8899845ad3d59bd9653f200f220920489ca2b5937696c31910160405180910390a3505050565b6119078484846114a3565b61191384848484611ab0565b610fd95760405162461bcd60e51b815260040161067690612535565b606061193a82611357565b6000828152600a60205260408120805461195390612416565b80601f016020809104026020016040519081016040528092919081815260200182805461197f90612416565b80156119cc5780601f106119a1576101008083540402835291602001916119cc565b820191906000526020600020905b8154815290600101906020018083116119af57829003601f168201915b505050505090506000611a0760408051808201909152601581527468747470733a2f2f697066732e696f2f697066732f60581b602082015290565b9050805160001415611a1a575092915050565b815115611a4c578082604051602001611a34929190612506565b60405160208183030381529060405292505050919050565b61149b84611bab565b6109ed838383611c3c565b60006001600160e01b031982166380ac58cd60e01b1480611a9157506001600160e01b03198216635b5e139f60e01b145b8061081d57506301ffc9a760e01b6001600160e01b031983161461081d565b60006001600160a01b0384163b15611ba357604051630a85bd0160e11b81526001600160a01b0385169063150b7a0290611af4903390899088908890600401612587565b6020604051808303816000875af1925050508015611b2f575060408051601f3d908101601f19168201909252611b2c918101906125c3565b60015b611b89573d808015611b5d576040519150601f19603f3d011682016040523d82523d6000602084013e611b62565b606091505b508051611b815760405162461bcd60e51b815260040161067690612535565b805181602001fd5b6001600160e01b031916630a85bd0160e11b14905061149b565b50600161149b565b6060611bb682611357565b6000611bea60408051808201909152601581527468747470733a2f2f697066732e696f2f697066732f60581b602082015290565b90506000815111611c0a5760405180602001604052806000815250611c35565b80611c1484611cf4565b604051602001611c25929190612506565b6040516020818303038152906040525b9392505050565b6001600160a01b038316611c9757611c9281600880546000838152600960205260408120829055600182018355919091527ff3f7a9fe364faab93b216da50a3214154f22a0a2b415b23a84c8169e8b636ee30155565b611cba565b816001600160a01b0316836001600160a01b031614611cba57611cba8382611df2565b6001600160a01b038216611cd1576109ed81611e8f565b826001600160a01b0316826001600160a01b0316146109ed576109ed8282611f3e565b606081611d185750506040805180820190915260018152600360fc1b602082015290565b8160005b8115611d425780611d2c816124cc565b9150611d3b9050600a83612402565b9150611d1c565b60008167ffffffffffffffff811115611d5d57611d5d61201b565b6040519080825280601f01601f191660200182016040528015611d87576020820181803683370190505b5090505b841561149b57611d9c60018361249f565b9150611da9600a866125e0565b611db49060306123d4565b60f81b818381518110611dc957611dc96124b6565b60200101906001600160f81b031916908160001a905350611deb600a86612402565b9450611d8b565b60006001611dff84610c24565b611e09919061249f565b600083815260076020526040902054909150808214611e5c576001600160a01b03841660009081526006602090815260408083208584528252808320548484528184208190558352600790915290208190555b5060009182526007602090815260408084208490556001600160a01b039094168352600681528383209183525290812055565b600854600090611ea19060019061249f565b60008381526009602052604081205460088054939450909284908110611ec957611ec96124b6565b906000526020600020015490508060088381548110611eea57611eea6124b6565b6000918252602080832090910192909255828152600990915260408082208490558582528120556008805480611f2257611f226125f4565b6001900381819060005260206000200160009055905550505050565b6000611f4983610c24565b6001600160a01b039093166000908152600660209081526040808320868452825280832085905593825260079052919091209190915550565b828054611f8e90612416565b90600052602060002090601f016020900481019282611fb05760008555611ff6565b82601f10611fc957805160ff1916838001178555611ff6565b82800160010185558215611ff6579182015b82811115611ff6578251825591602001919060010190611fdb565b50612002929150612006565b5090565b5b808211156120025760008155600101612007565b634e487b7160e01b600052604160045260246000fd5b600067ffffffffffffffff8084111561204c5761204c61201b565b604051601f8501601f19908116603f011681019082821181831017156120745761207461201b565b8160405280935085815286868601111561208d57600080fd5b858560208301376000602087830101525050509392505050565b600080604083850312156120ba57600080fd5b82359150602083013567ffffffffffffffff8111156120d857600080fd5b8301601f810185136120e957600080fd5b6120f885823560208401612031565b9150509250929050565b6001600160e01b0319811681146110ed57600080fd5b60006020828403121561212a57600080fd5b8135611c3581612102565b60006020828403121561214757600080fd5b5035919050565b60005b83811015612169578181015183820152602001612151565b83811115610fd95750506000910152565b6000815180845261219281602086016020860161214e565b601f01601f19169290920160200192915050565b602081526000611c35602083018461217a565b80356001600160a01b03811681146121d057600080fd5b919050565b600080604083850312156121e857600080fd5b6121f1836121b9565b946020939093013593505050565b60008060006060848603121561221457600080fd5b61221d846121b9565b925061222b602085016121b9565b9150604084013590509250925092565b60006020828403121561224d57600080fd5b611c35826121b9565b6000806000806080858703121561226c57600080fd5b84359350602085013560ff8116811461228457600080fd5b93969395505050506040820135916060013590565b803580151581146121d057600080fd5b600080604083850312156122bc57600080fd5b6122c5836121b9565b91506122d360208401612299565b90509250929050565b600080600080608085870312156122f257600080fd5b6122fb856121b9565b9350612309602086016121b9565b925060408501359150606085013567ffffffffffffffff81111561232c57600080fd5b8501601f8101871361233d57600080fd5b61234c87823560208401612031565b91505092959194509250565b60008060006060848603121561236d57600080fd5b612376846121b9565b92506020840135915061238b60408501612299565b90509250925092565b600080604083850312156123a757600080fd5b6123b0836121b9565b91506122d3602084016121b9565b634e487b7160e01b600052601160045260246000fd5b600082198211156123e7576123e76123be565b500190565b634e487b7160e01b600052601260045260246000fd5b600082612411576124116123ec565b500490565b600181811c9082168061242a57607f821691505b6020821081141561244b57634e487b7160e01b600052602260045260246000fd5b50919050565b6020808252602e908201527f4552433732313a2063616c6c6572206973206e6f7420746f6b656e206f776e6560408201526d1c881b9bdc88185c1c1c9bdd995960921b606082015260800190565b6000828210156124b1576124b16123be565b500390565b634e487b7160e01b600052603260045260246000fd5b60006000198214156124e0576124e06123be565b5060010190565b6000816000190483118215151615612501576125016123be565b500290565b6000835161251881846020880161214e565b83519083019061252c81836020880161214e565b01949350505050565b60208082526032908201527f4552433732313a207472616e7366657220746f206e6f6e20455243373231526560408201527131b2b4bb32b91034b6b83632b6b2b73a32b960711b606082015260800190565b60006001600160a01b038087168352808616602084015250836040830152608060608301526125b9608083018461217a565b9695505050505050565b6000602082840312156125d557600080fd5b8151611c3581612102565b6000826125ef576125ef6123ec565b500690565b634e487b7160e01b600052603160045260246000fdfea2646970667358221220de11cc235945634020e805056da5ecd48d1b809a46f79ca9390601ec480ccace64736f6c634300080a0033",
  "linkReferences": {},
  "deployedLinkReferences": {}
}