{
  "_format": "hh-sol-artifact-1",
  "contractName": "DixiNFT",
  "sourceName": "contracts/DixiNFT.sol",
  "abi": [
    {
      "inputs": [],
      "stateMutability": "nonpayable",
      "type": "constructor"
    },
    {
      "anonymous": false,
      "inputs": [
        {
          "indexed": true,
          "internalType": "address",
          "name": "owner",
          "type": "address"
        },
        {
          "indexed": true,
          "internalType": "address",
          "name": "approved",
          "type": "address"
        },
        {
          "indexed": true,
          "internalType": "uint256",
          "name": "tokenId",
          "type": "uint256"
        }
      ],
      "name": "Approval",
      "type": "event"
    },
    {
      "anonymous": false,
      "inputs": [
        {
          "indexed": true,
          "internalType": "address",
          "name": "owner",
          "type": "address"
        },
        {
          "indexed": true,
          "internalType": "address",
          "name": "operator",
          "type": "address"
        },
        {
          "indexed": false,
          "internalType": "bool",
          "name": "approved",
          "type": "bool"
        }
      ],
      "name": "ApprovalForAll",
      "type": "event"
    },
    {
      "anonymous": false,
      "inputs": [
        {
          "indexed": true,
          "internalType": "address",
          "name": "sender",
          "type": "address"
        },
        {
          "indexed": false,
          "internalType": "uint256",
          "name": "id",
          "type": "uint256"
        },
        {
          "indexed": false,
          "internalType": "uint256",
          "name": "amount",
          "type": "uint256"
        }
      ],
      "name": "AttmeptLog",
      "type": "event"
    },
    {
      "anonymous": false,
      "inputs": [
        {
          "indexed": true,
          "internalType": "address",
          "name": "sender",
          "type": "address"
        },
        {
          "indexed": false,
          "internalType": "uint256",
          "name": "id",
          "type": "uint256"
        },
        {
          "indexed": false,
          "internalType": "uint256",
          "name": "amount",
          "type": "uint256"
        }
      ],
      "name": "MintLog",
      "type": "event"
    },
    {
      "anonymous": false,
      "inputs": [
        {
          "indexed": true,
          "internalType": "address",
          "name": "previousOwner",
          "type": "address"
        },
        {
          "indexed": true,
          "internalType": "address",
          "name": "newOwner",
          "type": "address"
        }
      ],
      "name": "OwnershipTransferred",
      "type": "event"
    },
    {
      "anonymous": false,
      "inputs": [
        {
          "indexed": true,
          "internalType": "address",
          "name": "from",
          "type": "address"
        },
        {
          "indexed": true,
          "internalType": "address",
          "name": "to",
          "type": "address"
        },
        {
          "indexed": true,
          "internalType": "uint256",
          "name": "tokenId",
          "type": "uint256"
        }
      ],
      "name": "Transfer",
      "type": "event"
    },
    {
      "inputs": [
        {
          "internalType": "uint256",
          "name": "",
          "type": "uint256"
        }
      ],
      "name": "_gameParticipation",
      "outputs": [
        {
          "internalType": "bool",
          "name": "",
          "type": "bool"
        }
      ],
      "stateMutability": "view",
      "type": "function"
    },
    {
      "inputs": [
        {
          "internalType": "uint256",
          "name": "",
          "type": "uint256"
        }
      ],
      "name": "_inputHashes",
      "outputs": [
        {
          "internalType": "bytes32",
          "name": "",
          "type": "bytes32"
        }
      ],
      "stateMutability": "view",
      "type": "function"
    },
    {
      "inputs": [
        {
          "internalType": "uint256",
          "name": "",
          "type": "uint256"
        }
      ],
      "name": "_minters",
      "outputs": [
        {
          "internalType": "address",
          "name": "",
          "type": "address"
        }
      ],
      "stateMutability": "view",
      "type": "function"
    },
    {
      "inputs": [
        {
          "internalType": "address",
          "name": "to",
          "type": "address"
        },
        {
          "internalType": "uint256",
          "name": "tokenId",
          "type": "uint256"
        }
      ],
      "name": "approve",
      "outputs": [],
      "stateMutability": "nonpayable",
      "type": "function"
    },
    {
      "inputs": [
        {
          "internalType": "address",
          "name": "owner",
          "type": "address"
        }
      ],
      "name": "balanceOf",
      "outputs": [
        {
          "internalType": "uint256",
          "name": "",
          "type": "uint256"
        }
      ],
      "stateMutability": "view",
      "type": "function"
    },
    {
      "inputs": [
        {
          "internalType": "uint256",
          "name": "id",
          "type": "uint256"
        }
      ],
      "name": "enterTheGame",
      "outputs": [],
      "stateMutability": "nonpayable",
      "type": "function"
    },
    {
      "inputs": [
        {
          "internalType": "uint256",
          "name": "id",
          "type": "uint256"
        }
      ],
      "name": "exitGame",
      "outputs": [],
      "stateMutability": "nonpayable",
      "type": "function"
    },
    {
      "inputs": [
        {
          "internalType": "uint256",
          "name": "tokenId",
          "type": "uint256"
        }
      ],
      "name": "getApproved",
      "outputs": [
        {
          "internalType": "address",
          "name": "",
          "type": "address"
        }
      ],
      "stateMutability": "view",
      "type": "function"
    },
    {
      "inputs": [],
      "name": "getCurrentMintPrice",
      "outputs": [
        {
          "internalType": "uint256",
          "name": "",
          "type": "uint256"
        }
      ],
      "stateMutability": "view",
      "type": "function"
    },
    {
      "inputs": [
        {
          "internalType": "address",
          "name": "owner",
          "type": "address"
        },
        {
          "internalType": "address",
          "name": "operator",
          "type": "address"
        }
      ],
      "name": "isApprovedForAll",
      "outputs": [
        {
          "internalType": "bool",
          "name": "",
          "type": "bool"
        }
      ],
      "stateMutability": "view",
      "type": "function"
    },
    {
      "inputs": [
        {
          "internalType": "uint256",
          "name": "id",
          "type": "uint256"
        },
        {
          "internalType": "string",
          "name": "ipfsTokenUri",
          "type": "string"
        }
      ],
      "name": "mintFinalize",
      "outputs": [
        {
          "internalType": "uint256",
          "name": "",
          "type": "uint256"
        }
      ],
      "stateMutability": "nonpayable",
      "type": "function"
    },
    {
      "inputs": [
        {
          "internalType": "address",
          "name": "to",
          "type": "address"
        },
        {
          "internalType": "bytes32",
          "name": "inputHash",
          "type": "bytes32"
        },
        {
          "internalType": "bool",
          "name": "enterGame",
          "type": "bool"
        }
      ],
      "name": "mintItem",
      "outputs": [
        {
          "internalType": "uint256",
          "name": "",
          "type": "uint256"
        }
      ],
      "stateMutability": "payable",
      "type": "function"
    },
    {
      "inputs": [],
      "name": "name",
      "outputs": [
        {
          "internalType": "string",
          "name": "",
          "type": "string"
        }
      ],
      "stateMutability": "view",
      "type": "function"
    },
    {
      "inputs": [],
      "name": "owner",
      "outputs": [
        {
          "internalType": "address",
          "name": "",
          "type": "address"
        }
      ],
      "stateMutability": "view",
      "type": "function"
    },
    {
      "inputs": [
        {
          "internalType": "uint256",
          "name": "tokenId",
          "type": "uint256"
        }
      ],
      "name": "ownerOf",
      "outputs": [
        {
          "internalType": "address",
          "name": "",
          "type": "address"
        }
      ],
      "stateMutability": "view",
      "type": "function"
    },
    {
      "inputs": [],
      "name": "renounceOwnership",
      "outputs": [],
      "stateMutability": "nonpayable",
      "type": "function"
    },
    {
      "inputs": [
        {
          "internalType": "address",
          "name": "from",
          "type": "address"
        },
        {
          "internalType": "address",
          "name": "to",
          "type": "address"
        },
        {
          "internalType": "uint256",
          "name": "tokenId",
          "type": "uint256"
        }
      ],
      "name": "safeTransferFrom",
      "outputs": [],
      "stateMutability": "nonpayable",
      "type": "function"
    },
    {
      "inputs": [
        {
          "internalType": "address",
          "name": "from",
          "type": "address"
        },
        {
          "internalType": "address",
          "name": "to",
          "type": "address"
        },
        {
          "internalType": "uint256",
          "name": "tokenId",
          "type": "uint256"
        },
        {
          "internalType": "bytes",
          "name": "data",
          "type": "bytes"
        }
      ],
      "name": "safeTransferFrom",
      "outputs": [],
      "stateMutability": "nonpayable",
      "type": "function"
    },
    {
      "inputs": [
        {
          "internalType": "address",
          "name": "operator",
          "type": "address"
        },
        {
          "internalType": "bool",
          "name": "approved",
          "type": "bool"
        }
      ],
      "name": "setApprovalForAll",
      "outputs": [],
      "stateMutability": "nonpayable",
      "type": "function"
    },
    {
      "inputs": [
        {
          "internalType": "bytes4",
          "name": "interfaceId",
          "type": "bytes4"
        }
      ],
      "name": "supportsInterface",
      "outputs": [
        {
          "internalType": "bool",
          "name": "",
          "type": "bool"
        }
      ],
      "stateMutability": "view",
      "type": "function"
    },
    {
      "inputs": [],
      "name": "symbol",
      "outputs": [
        {
          "internalType": "string",
          "name": "",
          "type": "string"
        }
      ],
      "stateMutability": "view",
      "type": "function"
    },
    {
      "inputs": [
        {
          "internalType": "uint256",
          "name": "id",
          "type": "uint256"
        },
        {
          "internalType": "uint8",
          "name": "v",
          "type": "uint8"
        },
        {
          "internalType": "bytes32",
          "name": "r",
          "type": "bytes32"
        },
        {
          "internalType": "bytes32",
          "name": "s",
          "type": "bytes32"
        }
      ],
      "name": "takeOver",
      "outputs": [],
      "stateMutability": "nonpayable",
      "type": "function"
    },
    {
      "inputs": [],
      "name": "test",
      "outputs": [
        {
          "internalType": "uint256",
          "name": "",
          "type": "uint256"
        }
      ],
      "stateMutability": "view",
      "type": "function"
    },
    {
      "inputs": [
        {
          "internalType": "uint256",
          "name": "index",
          "type": "uint256"
        }
      ],
      "name": "tokenByIndex",
      "outputs": [
        {
          "internalType": "uint256",
          "name": "",
          "type": "uint256"
        }
      ],
      "stateMutability": "view",
      "type": "function"
    },
    {
      "inputs": [
        {
          "internalType": "address",
          "name": "owner",
          "type": "address"
        },
        {
          "internalType": "uint256",
          "name": "index",
          "type": "uint256"
        }
      ],
      "name": "tokenOfOwnerByIndex",
      "outputs": [
        {
          "internalType": "uint256",
          "name": "",
          "type": "uint256"
        }
      ],
      "stateMutability": "view",
      "type": "function"
    },
    {
      "inputs": [
        {
          "internalType": "uint256",
          "name": "tokenId",
          "type": "uint256"
        }
      ],
      "name": "tokenURI",
      "outputs": [
        {
          "internalType": "string",
          "name": "",
          "type": "string"
        }
      ],
      "stateMutability": "view",
      "type": "function"
    },
    {
      "inputs": [],
      "name": "totalSupply",
      "outputs": [
        {
          "internalType": "uint256",
          "name": "",
          "type": "uint256"
        }
      ],
      "stateMutability": "view",
      "type": "function"
    },
    {
      "inputs": [
        {
          "internalType": "address",
          "name": "from",
          "type": "address"
        },
        {
          "internalType": "address",
          "name": "to",
          "type": "address"
        },
        {
          "internalType": "uint256",
          "name": "tokenId",
          "type": "uint256"
        }
      ],
      "name": "transferFrom",
      "outputs": [],
      "stateMutability": "nonpayable",
      "type": "function"
    },
    {
      "inputs": [
        {
          "internalType": "address",
          "name": "owner",
          "type": "address"
        }
      ],
      "name": "transferOwnership",
      "outputs": [],
      "stateMutability": "nonpayable",
      "type": "function"
    },
    {
      "inputs": [
        {
          "internalType": "uint256",
          "name": "id",
          "type": "uint256"
        },
        {
          "internalType": "string",
          "name": "phrase",
          "type": "string"
        }
      ],
      "name": "tryGuess",
      "outputs": [],
      "stateMutability": "payable",
      "type": "function"
    },
    {
      "inputs": [
        {
          "internalType": "uint256",
          "name": "amount",
          "type": "uint256"
        }
      ],
      "name": "withdraw",
      "outputs": [],
      "stateMutability": "payable",
      "type": "function"
    }
  ],
  "bytecode": "0x60806040523480156200001157600080fd5b506040805180820182526007815266111a5e1a53919560ca1b6020808301918252835180850190945260048452634449584960e01b9084015281519192916200005d9160009162000102565b5080516200007390600190602084019062000102565b505050620000906200008a620000ac60201b60201c565b620000b0565b67016345785d8a0000600d5560006016819055601755620001e5565b3390565b600b80546001600160a01b038381166001600160a01b0319831681179093556040519116919082907f8be0079c531659141344cd1fd0a4f28419497f9722a3daafe3b4186f6b6457e090600090a35050565b8280546200011090620001a8565b90600052602060002090601f0160209004810192826200013457600085556200017f565b82601f106200014f57805160ff19168380011785556200017f565b828001600101855582156200017f579182015b828111156200017f57825182559160200191906001019062000162565b506200018d92915062000191565b5090565b5b808211156200018d576000815560010162000192565b600181811c90821680620001bd57607f821691505b60208210811415620001df57634e487b7160e01b600052602260045260246000fd5b50919050565b6126c280620001f56000396000f3fe6080604052600436106101d75760003560e01c806370a0823111610102578063b31d232211610095578063e82ded2111610064578063e82ded2114610564578063e985e9c514610579578063f2fde38b146105c2578063f8a8fd6d146105e257600080fd5b8063b31d2322146104e4578063b88d4fde14610511578063c87b56dd14610531578063cec85ccf1461055157600080fd5b80638da5cb5b116100d15780638da5cb5b1461047157806395d89b411461048f578063a22cb465146104a4578063ad38ed4b146104c457600080fd5b806370a08231146103fc578063715018a61461041c57806378e57c35146104315780638cd49dfb1461045157600080fd5b806318160ddd1161017a5780632f745c59116101495780632f745c591461037c57806342842e0e1461039c5780634f6ccce7146103bc5780636352211e146103dc57600080fd5b806318160ddd146102fe57806323b872dd146103135780632a29ad14146103335780632e1a7d4d1461036957600080fd5b8063065bf7e3116101b6578063065bf7e31461025457806306fdde0314610284578063081812fc146102a6578063095ea7b3146102de57600080fd5b80629853ad146101dc578063015ca504146101f157806301ffc9a714610224575b600080fd5b6101ef6101ea366004612129565b6105fe565b005b3480156101fd57600080fd5b5061021161020c366004612129565b610742565b6040519081526020015b60405180910390f35b34801561023057600080fd5b5061024461023f36600461219a565b610894565b604051901515815260200161021b565b34801561026057600080fd5b5061024461026f3660046121b7565b60126020526000908152604090205460ff1681565b34801561029057600080fd5b506102996108a5565b60405161021b9190612228565b3480156102b257600080fd5b506102c66102c13660046121b7565b610937565b6040516001600160a01b03909116815260200161021b565b3480156102ea57600080fd5b506101ef6102f9366004612257565b61095e565b34801561030a57600080fd5b50600854610211565b34801561031f57600080fd5b506101ef61032e366004612281565b610a74565b34801561033f57600080fd5b506102c661034e3660046121b7565b600f602052600090815260409020546001600160a01b031681565b6101ef6103773660046121b7565b610aa5565b34801561038857600080fd5b50610211610397366004612257565b610b02565b3480156103a857600080fd5b506101ef6103b7366004612281565b610b98565b3480156103c857600080fd5b506102116103d73660046121b7565b610bb3565b3480156103e857600080fd5b506102c66103f73660046121b7565b610c46565b34801561040857600080fd5b506102116104173660046122bd565b610ca6565b34801561042857600080fd5b506101ef610d2c565b34801561043d57600080fd5b506101ef61044c3660046121b7565b610d40565b34801561045d57600080fd5b506101ef61046c3660046122d8565b610dcb565b34801561047d57600080fd5b50600b546001600160a01b03166102c6565b34801561049b57600080fd5b50610299610f7c565b3480156104b057600080fd5b506101ef6104bf36600461232b565b610f8b565b3480156104d057600080fd5b506101ef6104df3660046121b7565b610f9a565b3480156104f057600080fd5b506102116104ff3660046121b7565b600e6020526000908152604090205481565b34801561051d57600080fd5b506101ef61052c36600461235e565b611029565b34801561053d57600080fd5b5061029961054c3660046121b7565b611061565b61021161055f3660046123da565b61106c565b34801561057057600080fd5b50600d54610211565b34801561058557600080fd5b50610244610594366004612416565b6001600160a01b03918216600090815260056020908152604080832093909416825291909152205460ff1690565b3480156105ce57600080fd5b506101ef6105dd3660046122bd565b61115e565b3480156105ee57600080fd5b506801c9f78d2893e40000610211565b60008281526013602052604090205434101561067f5760405162461bcd60e51b815260206004820152603560248201527f4e6f7420656e6f7567682066756e64732e20506c656173652c20636865636b2060448201527431bab93932b73a1030ba3a32b6b83a1039b4bd329760591b60648201526084015b60405180910390fd5b600082815260146020908152604080832054601390925282208054919283926106a9908490612456565b9091555050600083815260156020526040812080543492906106cc908490612456565b9250508190555034601760008282546106e59190612456565b9250508190555034601660008282546106fe9190612456565b90915550506040805184815234602082015233917fc7eaf6f4ca5d88afd8d3f27f59c152463c704ac37ecd1b3391be9b4a65632333910160405180910390a2505050565b6000828152600f60205260408120546001600160a01b03163314806107715750600b546001600160a01b031633145b6107cf5760405162461bcd60e51b815260206004820152602960248201527f4f6e6c79206d696e74696e6720696e697469616c697a65722063616e2066696e60448201526830b634bd329034ba1760b91b6064820152608401610676565b600d546107dd60c882612484565b600d546107ea9190612456565b600d556000848152600f602052604090205461080f906001600160a01b031685611172565b61081984846112c0565b610824600a82612484565b60008581526013602090815260408083209390935560148152828220849055600f8152908290205482518781529182018490526001600160a01b0316917f0cec0f8dc9537ba913422308f2a169d2f1248cc3e7dcab19ce34e07c3cf66ddc910160405180910390a2509192915050565b600061089f8261135a565b92915050565b6060600080546108b490612498565b80601f01602080910402602001604051908101604052809291908181526020018280546108e090612498565b801561092d5780601f106109025761010080835404028352916020019161092d565b820191906000526020600020905b81548152906001019060200180831161091057829003601f168201915b5050505050905090565b60006109428261137f565b506000908152600460205260409020546001600160a01b031690565b600061096982610c46565b9050806001600160a01b0316836001600160a01b031614156109d75760405162461bcd60e51b815260206004820152602160248201527f4552433732313a20617070726f76616c20746f2063757272656e74206f776e656044820152603960f91b6064820152608401610676565b336001600160a01b03821614806109f357506109f38133610594565b610a655760405162461bcd60e51b815260206004820152603e60248201527f4552433732313a20617070726f76652063616c6c6572206973206e6f7420746f60448201527f6b656e206f776e6572206e6f7220617070726f76656420666f7220616c6c00006064820152608401610676565b610a6f83836113de565b505050565b610a7e338261144c565b610a9a5760405162461bcd60e51b8152600401610676906124d3565b610a6f8383836114cb565b610aad611672565b600b546040516001600160a01b039091169082156108fc029083906000818181858888f19350505050158015610ae7573d6000803e3d6000fd5b508060166000828254610afa9190612521565b909155505050565b6000610b0d83610ca6565b8210610b6f5760405162461bcd60e51b815260206004820152602b60248201527f455243373231456e756d657261626c653a206f776e657220696e646578206f7560448201526a74206f6620626f756e647360a81b6064820152608401610676565b506001600160a01b03919091166000908152600660209081526040808320938352929052205490565b610a6f83838360405180602001604052806000815250611029565b6000610bbe60085490565b8210610c215760405162461bcd60e51b815260206004820152602c60248201527f455243373231456e756d657261626c653a20676c6f62616c20696e646578206f60448201526b7574206f6620626f756e647360a01b6064820152608401610676565b60088281548110610c3457610c34612538565b90600052602060002001549050919050565b6000818152600260205260408120546001600160a01b03168061089f5760405162461bcd60e51b8152602060048201526018602482015277115490cdcc8c4e881a5b9d985b1a59081d1bdad95b88125160421b6044820152606401610676565b60006001600160a01b038216610d105760405162461bcd60e51b815260206004820152602960248201527f4552433732313a2061646472657373207a65726f206973206e6f7420612076616044820152683634b21037bbb732b960b91b6064820152608401610676565b506001600160a01b031660009081526003602052604090205490565b610d34611672565b610d3e60006116cc565b565b6000818152600f60205260409020546001600160a01b03163314610db05760405162461bcd60e51b815260206004820152602160248201527f4f6e6c79204e4654206f776e65722063616e20656e746572207468652047616d6044820152606560f81b6064820152608401610676565b6000908152601260205260409020805460ff19166001179055565b60008481526012602052604090205460ff16610e475760405162461bcd60e51b815260206004820152603560248201527f54686973204e4654206f776e65722064656369646564206e6f7420746f20706160448201527472746963697061746520696e207468652047616d6560581b6064820152608401610676565b60008433604051602001610e7792919091825260601b6bffffffffffffffffffffffff1916602082015260340190565b60405160208183030381529060405290506000610e968286868661171e565b9050610eaa600b546001600160a01b031690565b6001600160a01b0316816001600160a01b031614610f32576040805162461bcd60e51b81526020600482015260248101919091527f5369676e617475726520696e636f72726563742e2044696420796f752061637460448201527f75616c6c792077696e20746f2074616b65206f7665722074686973204e46543f6064820152608401610676565b610f45610f3e87610c46565b3388610a74565b336000908152601160205260408120805491610f608361254e565b9091555033600090815260116020526040902055505050505050565b6060600180546108b490612498565b610f963383836118af565b5050565b6000818152600f60205260409020546001600160a01b031633146110115760405162461bcd60e51b815260206004820152602860248201527f4f6e6c79206f776e65722063616e2074616b6520686973204e4654206f6666206044820152677468652047616d6560c01b6064820152608401610676565b6000908152601260205260409020805460ff19169055565b611033338361144c565b61104f5760405162461bcd60e51b8152600401610676906124d3565b61105b8484848461197e565b50505050565b606061089f826119b1565b6000600d543410156110d95760405162461bcd60e51b815260206004820152603060248201527f506c6561736520636865636b2063757272656e742070726963652c206974277360448201526f20616c7265616479206869676865722160801b6064820152608401610676565b6110e7600c80546001019055565b60006110f2600c5490565b6000818152600e60209081526040808320889055600f825280832080546001600160a01b0319166001600160a01b038b1617905560129091528120805460ff1916861515179055601680549293503492909190611150908490612456565b909155509095945050505050565b611166611672565b61116f8161115e565b50565b6001600160a01b0382166111c85760405162461bcd60e51b815260206004820181905260248201527f4552433732313a206d696e7420746f20746865207a65726f20616464726573736044820152606401610676565b6000818152600260205260409020546001600160a01b03161561122d5760405162461bcd60e51b815260206004820152601c60248201527f4552433732313a20746f6b656e20616c7265616479206d696e746564000000006044820152606401610676565b61123960008383611ad7565b6001600160a01b0382166000908152600360205260408120805460019290611262908490612456565b909155505060008181526002602052604080822080546001600160a01b0319166001600160a01b03861690811790915590518392907fddf252ad1be2c89b69c2b068fc378daa952ba7f163c4a11628f55a4df523b3ef908290a45050565b6000828152600260205260409020546001600160a01b031661133b5760405162461bcd60e51b815260206004820152602e60248201527f45524337323155524953746f726167653a2055524920736574206f66206e6f6e60448201526d32bc34b9ba32b73a103a37b5b2b760911b6064820152608401610676565b6000828152600a602090815260409091208251610a6f92840190612004565b60006001600160e01b0319821663780e9d6360e01b148061089f575061089f82611ae2565b6000818152600260205260409020546001600160a01b031661116f5760405162461bcd60e51b8152602060048201526018602482015277115490cdcc8c4e881a5b9d985b1a59081d1bdad95b88125160421b6044820152606401610676565b600081815260046020526040902080546001600160a01b0319166001600160a01b038416908117909155819061141382610c46565b6001600160a01b03167f8c5be1e5ebec7d5bd14f71427d1e84f3dd0314c0f7b2291e5b200ac8c7c3b92560405160405180910390a45050565b60008061145883610c46565b9050806001600160a01b0316846001600160a01b0316148061149f57506001600160a01b0380821660009081526005602090815260408083209388168352929052205460ff165b806114c35750836001600160a01b03166114b884610937565b6001600160a01b0316145b949350505050565b826001600160a01b03166114de82610c46565b6001600160a01b0316146115425760405162461bcd60e51b815260206004820152602560248201527f4552433732313a207472616e736665722066726f6d20696e636f72726563742060448201526437bbb732b960d91b6064820152608401610676565b6001600160a01b0382166115a45760405162461bcd60e51b8152602060048201526024808201527f4552433732313a207472616e7366657220746f20746865207a65726f206164646044820152637265737360e01b6064820152608401610676565b6115af838383611ad7565b6115ba6000826113de565b6001600160a01b03831660009081526003602052604081208054600192906115e3908490612521565b90915550506001600160a01b0382166000908152600360205260408120805460019290611611908490612456565b909155505060008181526002602052604080822080546001600160a01b0319166001600160a01b0386811691821790925591518493918716917fddf252ad1be2c89b69c2b068fc378daa952ba7f163c4a11628f55a4df523b3ef91a4505050565b600b546001600160a01b03163314610d3e5760405162461bcd60e51b815260206004820181905260248201527f4f776e61626c653a2063616c6c6572206973206e6f7420746865206f776e65726044820152606401610676565b600b80546001600160a01b038381166001600160a01b0319831681179093556040519116919082907f8be0079c531659141344cd1fd0a4f28419497f9722a3daafe3b4186f6b6457e090600090a35050565b6040805180820190915260208082527f19457468657265756d205369676e6564204d6573736167653a0a303030303030908201528451600091906039820190620f423f81111561176d57600080fd5b6000620186a05b80156117f95760006117868285612484565b9050806117a557826117a55761179d600a83612484565b915050611774565b826117af8161254e565b93506117bd90508282612569565b6117c79085612521565b93506117d4600a83612484565b91506117e1603082612456565b9050846117ed8161254e565b95505080855350611774565b8161180757601b9150611815565b611812601a83612456565b91505b8185526000858b60405160200161182d929190612588565b60408051601f1981840301815282825280516020918201206000845290830180835281905260ff8d1691830191909152606082018b9052608082018a9052915060019060a0016020604051602081039080840390855afa158015611895573d6000803e3d6000fd5b5050604051601f1901519c9b505050505050505050505050565b816001600160a01b0316836001600160a01b031614156119115760405162461bcd60e51b815260206004820152601960248201527f4552433732313a20617070726f766520746f2063616c6c6572000000000000006044820152606401610676565b6001600160a01b03838116600081815260056020908152604080832094871680845294825291829020805460ff191686151590811790915591519182527f17307eab39ab6107e8899845ad3d59bd9653f200f220920489ca2b5937696c31910160405180910390a3505050565b6119898484846114cb565b61199584848484611b32565b61105b5760405162461bcd60e51b8152600401610676906125b7565b60606119bc8261137f565b6000828152600a6020526040812080546119d590612498565b80601f0160208091040260200160405190810160405280929190818152602001828054611a0190612498565b8015611a4e5780601f10611a2357610100808354040283529160200191611a4e565b820191906000526020600020905b815481529060010190602001808311611a3157829003601f168201915b505050505090506000611a8960408051808201909152601581527468747470733a2f2f697066732e696f2f697066732f60581b602082015290565b9050805160001415611a9c575092915050565b815115611ace578082604051602001611ab6929190612588565b60405160208183030381529060405292505050919050565b6114c384611c2d565b610a6f838383611cbe565b60006001600160e01b031982166380ac58cd60e01b1480611b1357506001600160e01b03198216635b5e139f60e01b145b8061089f57506301ffc9a760e01b6001600160e01b031983161461089f565b60006001600160a01b0384163b15611c2557604051630a85bd0160e11b81526001600160a01b0385169063150b7a0290611b76903390899088908890600401612609565b6020604051808303816000875af1925050508015611bb1575060408051601f3d908101601f19168201909252611bae91810190612645565b60015b611c0b573d808015611bdf576040519150601f19603f3d011682016040523d82523d6000602084013e611be4565b606091505b508051611c035760405162461bcd60e51b8152600401610676906125b7565b805181602001fd5b6001600160e01b031916630a85bd0160e11b1490506114c3565b5060016114c3565b6060611c388261137f565b6000611c6c60408051808201909152601581527468747470733a2f2f697066732e696f2f697066732f60581b602082015290565b90506000815111611c8c5760405180602001604052806000815250611cb7565b80611c9684611d76565b604051602001611ca7929190612588565b6040516020818303038152906040525b9392505050565b6001600160a01b038316611d1957611d1481600880546000838152600960205260408120829055600182018355919091527ff3f7a9fe364faab93b216da50a3214154f22a0a2b415b23a84c8169e8b636ee30155565b611d3c565b816001600160a01b0316836001600160a01b031614611d3c57611d3c8382611e74565b6001600160a01b038216611d5357610a6f81611f11565b826001600160a01b0316826001600160a01b031614610a6f57610a6f8282611fc0565b606081611d9a5750506040805180820190915260018152600360fc1b602082015290565b8160005b8115611dc45780611dae8161254e565b9150611dbd9050600a83612484565b9150611d9e565b60008167ffffffffffffffff811115611ddf57611ddf61209d565b6040519080825280601f01601f191660200182016040528015611e09576020820181803683370190505b5090505b84156114c357611e1e600183612521565b9150611e2b600a86612662565b611e36906030612456565b60f81b818381518110611e4b57611e4b612538565b60200101906001600160f81b031916908160001a905350611e6d600a86612484565b9450611e0d565b60006001611e8184610ca6565b611e8b9190612521565b600083815260076020526040902054909150808214611ede576001600160a01b03841660009081526006602090815260408083208584528252808320548484528184208190558352600790915290208190555b5060009182526007602090815260408084208490556001600160a01b039094168352600681528383209183525290812055565b600854600090611f2390600190612521565b60008381526009602052604081205460088054939450909284908110611f4b57611f4b612538565b906000526020600020015490508060088381548110611f6c57611f6c612538565b6000918252602080832090910192909255828152600990915260408082208490558582528120556008805480611fa457611fa4612676565b6001900381819060005260206000200160009055905550505050565b6000611fcb83610ca6565b6001600160a01b039093166000908152600660209081526040808320868452825280832085905593825260079052919091209190915550565b82805461201090612498565b90600052602060002090601f0160209004810192826120325760008555612078565b82601f1061204b57805160ff1916838001178555612078565b82800160010185558215612078579182015b8281111561207857825182559160200191906001019061205d565b50612084929150612088565b5090565b5b808211156120845760008155600101612089565b634e487b7160e01b600052604160045260246000fd5b600067ffffffffffffffff808411156120ce576120ce61209d565b604051601f8501601f19908116603f011681019082821181831017156120f6576120f661209d565b8160405280935085815286868601111561210f57600080fd5b858560208301376000602087830101525050509392505050565b6000806040838503121561213c57600080fd5b82359150602083013567ffffffffffffffff81111561215a57600080fd5b8301601f8101851361216b57600080fd5b61217a858235602084016120b3565b9150509250929050565b6001600160e01b03198116811461116f57600080fd5b6000602082840312156121ac57600080fd5b8135611cb781612184565b6000602082840312156121c957600080fd5b5035919050565b60005b838110156121eb5781810151838201526020016121d3565b8381111561105b5750506000910152565b600081518084526122148160208601602086016121d0565b601f01601f19169290920160200192915050565b602081526000611cb760208301846121fc565b80356001600160a01b038116811461225257600080fd5b919050565b6000806040838503121561226a57600080fd5b6122738361223b565b946020939093013593505050565b60008060006060848603121561229657600080fd5b61229f8461223b565b92506122ad6020850161223b565b9150604084013590509250925092565b6000602082840312156122cf57600080fd5b611cb78261223b565b600080600080608085870312156122ee57600080fd5b84359350602085013560ff8116811461230657600080fd5b93969395505050506040820135916060013590565b8035801515811461225257600080fd5b6000806040838503121561233e57600080fd5b6123478361223b565b91506123556020840161231b565b90509250929050565b6000806000806080858703121561237457600080fd5b61237d8561223b565b935061238b6020860161223b565b925060408501359150606085013567ffffffffffffffff8111156123ae57600080fd5b8501601f810187136123bf57600080fd5b6123ce878235602084016120b3565b91505092959194509250565b6000806000606084860312156123ef57600080fd5b6123f88461223b565b92506020840135915061240d6040850161231b565b90509250925092565b6000806040838503121561242957600080fd5b6124328361223b565b91506123556020840161223b565b634e487b7160e01b600052601160045260246000fd5b6000821982111561246957612469612440565b500190565b634e487b7160e01b600052601260045260246000fd5b6000826124935761249361246e565b500490565b600181811c908216806124ac57607f821691505b602082108114156124cd57634e487b7160e01b600052602260045260246000fd5b50919050565b6020808252602e908201527f4552433732313a2063616c6c6572206973206e6f7420746f6b656e206f776e6560408201526d1c881b9bdc88185c1c1c9bdd995960921b606082015260800190565b60008282101561253357612533612440565b500390565b634e487b7160e01b600052603260045260246000fd5b600060001982141561256257612562612440565b5060010190565b600081600019048311821515161561258357612583612440565b500290565b6000835161259a8184602088016121d0565b8351908301906125ae8183602088016121d0565b01949350505050565b60208082526032908201527f4552433732313a207472616e7366657220746f206e6f6e20455243373231526560408201527131b2b4bb32b91034b6b83632b6b2b73a32b960711b606082015260800190565b60006001600160a01b0380871683528086166020840152508360408301526080606083015261263b60808301846121fc565b9695505050505050565b60006020828403121561265757600080fd5b8151611cb781612184565b6000826126715761267161246e565b500690565b634e487b7160e01b600052603160045260246000fdfea26469706673582212202bf1d65816c41a9229c5e7ee5f9b2d74e643bab28af02ed6719859bdbc4c855a64736f6c634300080a0033",
  "linkReferences": {},
  "deployedLinkReferences": {}
}