{
  "_format": "hh-sol-artifact-1",
  "contractName": "DixiNFT",
  "sourceName": "contracts/DixiNFT.sol",
  "abi": [
    {
      "inputs": [],
      "stateMutability": "nonpayable",
      "type": "constructor"
    },
    {
      "anonymous": false,
      "inputs": [
        {
          "indexed": true,
          "internalType": "address",
          "name": "owner",
          "type": "address"
        },
        {
          "indexed": true,
          "internalType": "address",
          "name": "approved",
          "type": "address"
        },
        {
          "indexed": true,
          "internalType": "uint256",
          "name": "tokenId",
          "type": "uint256"
        }
      ],
      "name": "Approval",
      "type": "event"
    },
    {
      "anonymous": false,
      "inputs": [
        {
          "indexed": true,
          "internalType": "address",
          "name": "owner",
          "type": "address"
        },
        {
          "indexed": true,
          "internalType": "address",
          "name": "operator",
          "type": "address"
        },
        {
          "indexed": false,
          "internalType": "bool",
          "name": "approved",
          "type": "bool"
        }
      ],
      "name": "ApprovalForAll",
      "type": "event"
    },
    {
      "anonymous": false,
      "inputs": [
        {
          "indexed": true,
          "internalType": "address",
          "name": "sender",
          "type": "address"
        },
        {
          "indexed": false,
          "internalType": "uint256",
          "name": "id",
          "type": "uint256"
        },
        {
          "indexed": false,
          "internalType": "uint256",
          "name": "amount",
          "type": "uint256"
        }
      ],
      "name": "AttmeptLog",
      "type": "event"
    },
    {
      "anonymous": false,
      "inputs": [
        {
          "indexed": true,
          "internalType": "address",
          "name": "sender",
          "type": "address"
        },
        {
          "indexed": false,
          "internalType": "uint256",
          "name": "id",
          "type": "uint256"
        },
        {
          "indexed": false,
          "internalType": "uint256",
          "name": "amount",
          "type": "uint256"
        }
      ],
      "name": "MintLog",
      "type": "event"
    },
    {
      "anonymous": false,
      "inputs": [
        {
          "indexed": true,
          "internalType": "address",
          "name": "previousOwner",
          "type": "address"
        },
        {
          "indexed": true,
          "internalType": "address",
          "name": "newOwner",
          "type": "address"
        }
      ],
      "name": "OwnershipTransferred",
      "type": "event"
    },
    {
      "anonymous": false,
      "inputs": [
        {
          "indexed": true,
          "internalType": "address",
          "name": "from",
          "type": "address"
        },
        {
          "indexed": true,
          "internalType": "address",
          "name": "to",
          "type": "address"
        },
        {
          "indexed": true,
          "internalType": "uint256",
          "name": "tokenId",
          "type": "uint256"
        }
      ],
      "name": "Transfer",
      "type": "event"
    },
    {
      "inputs": [
        {
          "internalType": "uint256",
          "name": "",
          "type": "uint256"
        }
      ],
      "name": "_gameParticipation",
      "outputs": [
        {
          "internalType": "bool",
          "name": "",
          "type": "bool"
        }
      ],
      "stateMutability": "view",
      "type": "function"
    },
    {
      "inputs": [
        {
          "internalType": "uint256",
          "name": "",
          "type": "uint256"
        }
      ],
      "name": "_inputHashes",
      "outputs": [
        {
          "internalType": "bytes32",
          "name": "",
          "type": "bytes32"
        }
      ],
      "stateMutability": "view",
      "type": "function"
    },
    {
      "inputs": [
        {
          "internalType": "uint256",
          "name": "",
          "type": "uint256"
        }
      ],
      "name": "_minters",
      "outputs": [
        {
          "internalType": "address",
          "name": "",
          "type": "address"
        }
      ],
      "stateMutability": "view",
      "type": "function"
    },
    {
      "inputs": [
        {
          "internalType": "address",
          "name": "to",
          "type": "address"
        },
        {
          "internalType": "uint256",
          "name": "tokenId",
          "type": "uint256"
        }
      ],
      "name": "approve",
      "outputs": [],
      "stateMutability": "nonpayable",
      "type": "function"
    },
    {
      "inputs": [
        {
          "internalType": "address",
          "name": "owner",
          "type": "address"
        }
      ],
      "name": "balanceOf",
      "outputs": [
        {
          "internalType": "uint256",
          "name": "",
          "type": "uint256"
        }
      ],
      "stateMutability": "view",
      "type": "function"
    },
    {
      "inputs": [],
      "name": "currentMintPrice",
      "outputs": [
        {
          "internalType": "uint256",
          "name": "",
          "type": "uint256"
        }
      ],
      "stateMutability": "view",
      "type": "function"
    },
    {
      "inputs": [
        {
          "internalType": "uint256",
          "name": "id",
          "type": "uint256"
        }
      ],
      "name": "enterTheGame",
      "outputs": [],
      "stateMutability": "nonpayable",
      "type": "function"
    },
    {
      "inputs": [
        {
          "internalType": "uint256",
          "name": "id",
          "type": "uint256"
        }
      ],
      "name": "exitGame",
      "outputs": [],
      "stateMutability": "nonpayable",
      "type": "function"
    },
    {
      "inputs": [
        {
          "internalType": "uint256",
          "name": "tokenId",
          "type": "uint256"
        }
      ],
      "name": "getApproved",
      "outputs": [
        {
          "internalType": "address",
          "name": "",
          "type": "address"
        }
      ],
      "stateMutability": "view",
      "type": "function"
    },
    {
      "inputs": [
        {
          "internalType": "address",
          "name": "owner",
          "type": "address"
        },
        {
          "internalType": "address",
          "name": "operator",
          "type": "address"
        }
      ],
      "name": "isApprovedForAll",
      "outputs": [
        {
          "internalType": "bool",
          "name": "",
          "type": "bool"
        }
      ],
      "stateMutability": "view",
      "type": "function"
    },
    {
      "inputs": [
        {
          "internalType": "uint256",
          "name": "id",
          "type": "uint256"
        },
        {
          "internalType": "string",
          "name": "ipfsTokenUri",
          "type": "string"
        }
      ],
      "name": "mintFinalize",
      "outputs": [
        {
          "internalType": "uint256",
          "name": "",
          "type": "uint256"
        }
      ],
      "stateMutability": "nonpayable",
      "type": "function"
    },
    {
      "inputs": [
        {
          "internalType": "address",
          "name": "to",
          "type": "address"
        },
        {
          "internalType": "bytes32",
          "name": "inputHash",
          "type": "bytes32"
        },
        {
          "internalType": "bool",
          "name": "enterGame",
          "type": "bool"
        }
      ],
      "name": "mintItem",
      "outputs": [
        {
          "internalType": "uint256",
          "name": "",
          "type": "uint256"
        }
      ],
      "stateMutability": "payable",
      "type": "function"
    },
    {
      "inputs": [],
      "name": "name",
      "outputs": [
        {
          "internalType": "string",
          "name": "",
          "type": "string"
        }
      ],
      "stateMutability": "view",
      "type": "function"
    },
    {
      "inputs": [],
      "name": "owner",
      "outputs": [
        {
          "internalType": "address",
          "name": "",
          "type": "address"
        }
      ],
      "stateMutability": "view",
      "type": "function"
    },
    {
      "inputs": [
        {
          "internalType": "uint256",
          "name": "tokenId",
          "type": "uint256"
        }
      ],
      "name": "ownerOf",
      "outputs": [
        {
          "internalType": "address",
          "name": "",
          "type": "address"
        }
      ],
      "stateMutability": "view",
      "type": "function"
    },
    {
      "inputs": [],
      "name": "renounceOwnership",
      "outputs": [],
      "stateMutability": "nonpayable",
      "type": "function"
    },
    {
      "inputs": [
        {
          "internalType": "address",
          "name": "from",
          "type": "address"
        },
        {
          "internalType": "address",
          "name": "to",
          "type": "address"
        },
        {
          "internalType": "uint256",
          "name": "tokenId",
          "type": "uint256"
        }
      ],
      "name": "safeTransferFrom",
      "outputs": [],
      "stateMutability": "nonpayable",
      "type": "function"
    },
    {
      "inputs": [
        {
          "internalType": "address",
          "name": "from",
          "type": "address"
        },
        {
          "internalType": "address",
          "name": "to",
          "type": "address"
        },
        {
          "internalType": "uint256",
          "name": "tokenId",
          "type": "uint256"
        },
        {
          "internalType": "bytes",
          "name": "data",
          "type": "bytes"
        }
      ],
      "name": "safeTransferFrom",
      "outputs": [],
      "stateMutability": "nonpayable",
      "type": "function"
    },
    {
      "inputs": [
        {
          "internalType": "address",
          "name": "operator",
          "type": "address"
        },
        {
          "internalType": "bool",
          "name": "approved",
          "type": "bool"
        }
      ],
      "name": "setApprovalForAll",
      "outputs": [],
      "stateMutability": "nonpayable",
      "type": "function"
    },
    {
      "inputs": [
        {
          "internalType": "bytes4",
          "name": "interfaceId",
          "type": "bytes4"
        }
      ],
      "name": "supportsInterface",
      "outputs": [
        {
          "internalType": "bool",
          "name": "",
          "type": "bool"
        }
      ],
      "stateMutability": "view",
      "type": "function"
    },
    {
      "inputs": [],
      "name": "symbol",
      "outputs": [
        {
          "internalType": "string",
          "name": "",
          "type": "string"
        }
      ],
      "stateMutability": "view",
      "type": "function"
    },
    {
      "inputs": [
        {
          "internalType": "uint256",
          "name": "id",
          "type": "uint256"
        },
        {
          "internalType": "uint8",
          "name": "v",
          "type": "uint8"
        },
        {
          "internalType": "bytes32",
          "name": "r",
          "type": "bytes32"
        },
        {
          "internalType": "bytes32",
          "name": "s",
          "type": "bytes32"
        }
      ],
      "name": "takeOver",
      "outputs": [],
      "stateMutability": "nonpayable",
      "type": "function"
    },
    {
      "inputs": [
        {
          "internalType": "uint256",
          "name": "index",
          "type": "uint256"
        }
      ],
      "name": "tokenByIndex",
      "outputs": [
        {
          "internalType": "uint256",
          "name": "",
          "type": "uint256"
        }
      ],
      "stateMutability": "view",
      "type": "function"
    },
    {
      "inputs": [
        {
          "internalType": "address",
          "name": "owner",
          "type": "address"
        },
        {
          "internalType": "uint256",
          "name": "index",
          "type": "uint256"
        }
      ],
      "name": "tokenOfOwnerByIndex",
      "outputs": [
        {
          "internalType": "uint256",
          "name": "",
          "type": "uint256"
        }
      ],
      "stateMutability": "view",
      "type": "function"
    },
    {
      "inputs": [
        {
          "internalType": "uint256",
          "name": "tokenId",
          "type": "uint256"
        }
      ],
      "name": "tokenURI",
      "outputs": [
        {
          "internalType": "string",
          "name": "",
          "type": "string"
        }
      ],
      "stateMutability": "view",
      "type": "function"
    },
    {
      "inputs": [],
      "name": "totalSupply",
      "outputs": [
        {
          "internalType": "uint256",
          "name": "",
          "type": "uint256"
        }
      ],
      "stateMutability": "view",
      "type": "function"
    },
    {
      "inputs": [
        {
          "internalType": "address",
          "name": "from",
          "type": "address"
        },
        {
          "internalType": "address",
          "name": "to",
          "type": "address"
        },
        {
          "internalType": "uint256",
          "name": "tokenId",
          "type": "uint256"
        }
      ],
      "name": "transferFrom",
      "outputs": [],
      "stateMutability": "nonpayable",
      "type": "function"
    },
    {
      "inputs": [
        {
          "internalType": "address",
          "name": "owner",
          "type": "address"
        }
      ],
      "name": "transferOwnership",
      "outputs": [],
      "stateMutability": "nonpayable",
      "type": "function"
    },
    {
      "inputs": [
        {
          "internalType": "uint256",
          "name": "id",
          "type": "uint256"
        },
        {
          "internalType": "string",
          "name": "phrase",
          "type": "string"
        }
      ],
      "name": "tryGuess",
      "outputs": [],
      "stateMutability": "payable",
      "type": "function"
    },
    {
      "inputs": [],
      "name": "watafuqzz",
      "outputs": [
        {
          "internalType": "uint256",
          "name": "",
          "type": "uint256"
        }
      ],
      "stateMutability": "view",
      "type": "function"
    },
    {
      "inputs": [
        {
          "internalType": "uint256",
          "name": "amount",
          "type": "uint256"
        }
      ],
      "name": "withdraw",
      "outputs": [],
      "stateMutability": "payable",
      "type": "function"
    }
  ],
  "bytecode": "0x6080604052670de0b6b3a7640000600d553480156200001d57600080fd5b506040805180820182526007815266111a5e1a53919560ca1b6020808301918252835180850190945260048452634449584960e01b90840152815191929162000069916000916200010e565b5080516200007f9060019060208401906200010e565b5050506200009c62000096620000b860201b60201c565b620000bc565b670de0b6b3a7640000600d5560006016819055601755620001f1565b3390565b600b80546001600160a01b038381166001600160a01b0319831681179093556040519116919082907f8be0079c531659141344cd1fd0a4f28419497f9722a3daafe3b4186f6b6457e090600090a35050565b8280546200011c90620001b4565b90600052602060002090601f0160209004810192826200014057600085556200018b565b82601f106200015b57805160ff19168380011785556200018b565b828001600101855582156200018b579182015b828111156200018b5782518255916020019190600101906200016e565b50620001999291506200019d565b5090565b5b808211156200019957600081556001016200019e565b600181811c90821680620001c957607f821691505b60208210811415620001eb57634e487b7160e01b600052602260045260246000fd5b50919050565b61263880620002016000396000f3fe6080604052600436106101d75760003560e01c80636352211e11610102578063a7e9b34a11610095578063c87b56dd11610064578063c87b56dd1461055a578063cec85ccf1461057a578063e985e9c51461058d578063f2fde38b146105d657600080fd5b8063a7e9b34a146104d8578063ad38ed4b146104ed578063b31d23221461050d578063b88d4fde1461053a57600080fd5b80638cd49dfb116100d15780638cd49dfb146104655780638da5cb5b1461048557806395d89b41146104a3578063a22cb465146104b857600080fd5b80636352211e146103f057806370a0823114610410578063715018a61461043057806378e57c351461044557600080fd5b8063095ea7b31161017a5780632e1a7d4d116101495780632e1a7d4d1461037d5780632f745c591461039057806342842e0e146103b05780634f6ccce7146103d057600080fd5b8063095ea7b3146102f257806318160ddd1461031257806323b872dd146103275780632a29ad141461034757600080fd5b80630561942a116101b65780630561942a14610254578063065bf7e31461026857806306fdde0314610298578063081812fc146102ba57600080fd5b80629853ad146101dc578063015ca504146101f157806301ffc9a714610224575b600080fd5b6101ef6101ea36600461209f565b6105f6565b005b3480156101fd57600080fd5b5061021161020c36600461209f565b61073a565b6040519081526020015b60405180910390f35b34801561023057600080fd5b5061024461023f366004612110565b61080a565b604051901515815260200161021b565b34801561026057600080fd5b506008610211565b34801561027457600080fd5b5061024461028336600461212d565b60126020526000908152604090205460ff1681565b3480156102a457600080fd5b506102ad61081b565b60405161021b919061219e565b3480156102c657600080fd5b506102da6102d536600461212d565b6108ad565b6040516001600160a01b03909116815260200161021b565b3480156102fe57600080fd5b506101ef61030d3660046121cd565b6108d4565b34801561031e57600080fd5b50600854610211565b34801561033357600080fd5b506101ef6103423660046121f7565b6109ea565b34801561035357600080fd5b506102da61036236600461212d565b600f602052600090815260409020546001600160a01b031681565b6101ef61038b36600461212d565b610a1b565b34801561039c57600080fd5b506102116103ab3660046121cd565b610a78565b3480156103bc57600080fd5b506101ef6103cb3660046121f7565b610b0e565b3480156103dc57600080fd5b506102116103eb36600461212d565b610b29565b3480156103fc57600080fd5b506102da61040b36600461212d565b610bbc565b34801561041c57600080fd5b5061021161042b366004612233565b610c1c565b34801561043c57600080fd5b506101ef610ca2565b34801561045157600080fd5b506101ef61046036600461212d565b610cb6565b34801561047157600080fd5b506101ef61048036600461224e565b610d41565b34801561049157600080fd5b50600b546001600160a01b03166102da565b3480156104af57600080fd5b506102ad610ef2565b3480156104c457600080fd5b506101ef6104d33660046122a1565b610f01565b3480156104e457600080fd5b50600d54610211565b3480156104f957600080fd5b506101ef61050836600461212d565b610f10565b34801561051957600080fd5b5061021161052836600461212d565b600e6020526000908152604090205481565b34801561054657600080fd5b506101ef6105553660046122d4565b610f9f565b34801561056657600080fd5b506102ad61057536600461212d565b610fd7565b610211610588366004612350565b610fe2565b34801561059957600080fd5b506102446105a836600461238c565b6001600160a01b03918216600090815260056020908152604080832093909416825291909152205460ff1690565b3480156105e257600080fd5b506101ef6105f1366004612233565b6110d4565b6000828152601360205260409020543410156106775760405162461bcd60e51b815260206004820152603560248201527f4e6f7420656e6f7567682066756e64732e20506c656173652c20636865636b2060448201527431bab93932b73a1030ba3a32b6b83a1039b4bd329760591b60648201526084015b60405180910390fd5b600082815260146020908152604080832054601390925282208054919283926106a19084906123cc565b9091555050600083815260156020526040812080543492906106c49084906123cc565b9250508190555034601760008282546106dd91906123cc565b9250508190555034601660008282546106f691906123cc565b90915550506040805184815234602082015233917fc7eaf6f4ca5d88afd8d3f27f59c152463c704ac37ecd1b3391be9b4a65632333910160405180910390a2505050565b60006107446110e8565b600d546107536103e8826123fa565b600d5461076091906123cc565b600d556000848152600f6020526040902054610785906001600160a01b031685611142565b61078f8484611290565b61079a600a826123fa565b60008581526013602090815260408083209390935560148152828220849055600f8152908290205482518781529182018490526001600160a01b0316917f0cec0f8dc9537ba913422308f2a169d2f1248cc3e7dcab19ce34e07c3cf66ddc910160405180910390a2509192915050565b60006108158261132a565b92915050565b60606000805461082a9061240e565b80601f01602080910402602001604051908101604052809291908181526020018280546108569061240e565b80156108a35780601f10610878576101008083540402835291602001916108a3565b820191906000526020600020905b81548152906001019060200180831161088657829003601f168201915b5050505050905090565b60006108b88261134f565b506000908152600460205260409020546001600160a01b031690565b60006108df82610bbc565b9050806001600160a01b0316836001600160a01b0316141561094d5760405162461bcd60e51b815260206004820152602160248201527f4552433732313a20617070726f76616c20746f2063757272656e74206f776e656044820152603960f91b606482015260840161066e565b336001600160a01b0382161480610969575061096981336105a8565b6109db5760405162461bcd60e51b815260206004820152603e60248201527f4552433732313a20617070726f76652063616c6c6572206973206e6f7420746f60448201527f6b656e206f776e6572206e6f7220617070726f76656420666f7220616c6c0000606482015260840161066e565b6109e583836113ae565b505050565b6109f4338261141c565b610a105760405162461bcd60e51b815260040161066e90612449565b6109e583838361149b565b610a236110e8565b600b546040516001600160a01b039091169082156108fc029083906000818181858888f19350505050158015610a5d573d6000803e3d6000fd5b508060166000828254610a709190612497565b909155505050565b6000610a8383610c1c565b8210610ae55760405162461bcd60e51b815260206004820152602b60248201527f455243373231456e756d657261626c653a206f776e657220696e646578206f7560448201526a74206f6620626f756e647360a81b606482015260840161066e565b506001600160a01b03919091166000908152600660209081526040808320938352929052205490565b6109e583838360405180602001604052806000815250610f9f565b6000610b3460085490565b8210610b975760405162461bcd60e51b815260206004820152602c60248201527f455243373231456e756d657261626c653a20676c6f62616c20696e646578206f60448201526b7574206f6620626f756e647360a01b606482015260840161066e565b60088281548110610baa57610baa6124ae565b90600052602060002001549050919050565b6000818152600260205260408120546001600160a01b0316806108155760405162461bcd60e51b8152602060048201526018602482015277115490cdcc8c4e881a5b9d985b1a59081d1bdad95b88125160421b604482015260640161066e565b60006001600160a01b038216610c865760405162461bcd60e51b815260206004820152602960248201527f4552433732313a2061646472657373207a65726f206973206e6f7420612076616044820152683634b21037bbb732b960b91b606482015260840161066e565b506001600160a01b031660009081526003602052604090205490565b610caa6110e8565b610cb46000611642565b565b6000818152600f60205260409020546001600160a01b03163314610d265760405162461bcd60e51b815260206004820152602160248201527f4f6e6c79204e4654206f776e65722063616e20656e746572207468652047616d6044820152606560f81b606482015260840161066e565b6000908152601260205260409020805460ff19166001179055565b60008481526012602052604090205460ff16610dbd5760405162461bcd60e51b815260206004820152603560248201527f54686973204e4654206f776e65722064656369646564206e6f7420746f20706160448201527472746963697061746520696e207468652047616d6560581b606482015260840161066e565b60008433604051602001610ded92919091825260601b6bffffffffffffffffffffffff1916602082015260340190565b60405160208183030381529060405290506000610e0c82868686611694565b9050610e20600b546001600160a01b031690565b6001600160a01b0316816001600160a01b031614610ea8576040805162461bcd60e51b81526020600482015260248101919091527f5369676e617475726520696e636f72726563742e2044696420796f752061637460448201527f75616c6c792077696e20746f2074616b65206f7665722074686973204e46543f606482015260840161066e565b610ebb610eb487610bbc565b33886109ea565b336000908152601160205260408120805491610ed6836124c4565b9091555033600090815260116020526040902055505050505050565b60606001805461082a9061240e565b610f0c338383611825565b5050565b6000818152600f60205260409020546001600160a01b03163314610f875760405162461bcd60e51b815260206004820152602860248201527f4f6e6c79206f776e65722063616e2074616b6520686973204e4654206f6666206044820152677468652047616d6560c01b606482015260840161066e565b6000908152601260205260409020805460ff19169055565b610fa9338361141c565b610fc55760405162461bcd60e51b815260040161066e90612449565b610fd1848484846118f4565b50505050565b606061081582611927565b6000600d5434101561104f5760405162461bcd60e51b815260206004820152603060248201527f506c6561736520636865636b2063757272656e742070726963652c206974277360448201526f20616c7265616479206869676865722160801b606482015260840161066e565b61105d600c80546001019055565b6000611068600c5490565b6000818152600e60209081526040808320889055600f825280832080546001600160a01b0319166001600160a01b038b1617905560129091528120805460ff19168615151790556016805492935034929091906110c69084906123cc565b909155509095945050505050565b6110dc6110e8565b6110e5816110d4565b50565b600b546001600160a01b03163314610cb45760405162461bcd60e51b815260206004820181905260248201527f4f776e61626c653a2063616c6c6572206973206e6f7420746865206f776e6572604482015260640161066e565b6001600160a01b0382166111985760405162461bcd60e51b815260206004820181905260248201527f4552433732313a206d696e7420746f20746865207a65726f2061646472657373604482015260640161066e565b6000818152600260205260409020546001600160a01b0316156111fd5760405162461bcd60e51b815260206004820152601c60248201527f4552433732313a20746f6b656e20616c7265616479206d696e74656400000000604482015260640161066e565b61120960008383611a4d565b6001600160a01b03821660009081526003602052604081208054600192906112329084906123cc565b909155505060008181526002602052604080822080546001600160a01b0319166001600160a01b03861690811790915590518392907fddf252ad1be2c89b69c2b068fc378daa952ba7f163c4a11628f55a4df523b3ef908290a45050565b6000828152600260205260409020546001600160a01b031661130b5760405162461bcd60e51b815260206004820152602e60248201527f45524337323155524953746f726167653a2055524920736574206f66206e6f6e60448201526d32bc34b9ba32b73a103a37b5b2b760911b606482015260840161066e565b6000828152600a6020908152604090912082516109e592840190611f7a565b60006001600160e01b0319821663780e9d6360e01b1480610815575061081582611a58565b6000818152600260205260409020546001600160a01b03166110e55760405162461bcd60e51b8152602060048201526018602482015277115490cdcc8c4e881a5b9d985b1a59081d1bdad95b88125160421b604482015260640161066e565b600081815260046020526040902080546001600160a01b0319166001600160a01b03841690811790915581906113e382610bbc565b6001600160a01b03167f8c5be1e5ebec7d5bd14f71427d1e84f3dd0314c0f7b2291e5b200ac8c7c3b92560405160405180910390a45050565b60008061142883610bbc565b9050806001600160a01b0316846001600160a01b0316148061146f57506001600160a01b0380821660009081526005602090815260408083209388168352929052205460ff165b806114935750836001600160a01b0316611488846108ad565b6001600160a01b0316145b949350505050565b826001600160a01b03166114ae82610bbc565b6001600160a01b0316146115125760405162461bcd60e51b815260206004820152602560248201527f4552433732313a207472616e736665722066726f6d20696e636f72726563742060448201526437bbb732b960d91b606482015260840161066e565b6001600160a01b0382166115745760405162461bcd60e51b8152602060048201526024808201527f4552433732313a207472616e7366657220746f20746865207a65726f206164646044820152637265737360e01b606482015260840161066e565b61157f838383611a4d565b61158a6000826113ae565b6001600160a01b03831660009081526003602052604081208054600192906115b3908490612497565b90915550506001600160a01b03821660009081526003602052604081208054600192906115e19084906123cc565b909155505060008181526002602052604080822080546001600160a01b0319166001600160a01b0386811691821790925591518493918716917fddf252ad1be2c89b69c2b068fc378daa952ba7f163c4a11628f55a4df523b3ef91a4505050565b600b80546001600160a01b038381166001600160a01b0319831681179093556040519116919082907f8be0079c531659141344cd1fd0a4f28419497f9722a3daafe3b4186f6b6457e090600090a35050565b6040805180820190915260208082527f19457468657265756d205369676e6564204d6573736167653a0a303030303030908201528451600091906039820190620f423f8111156116e357600080fd5b6000620186a05b801561176f5760006116fc82856123fa565b90508061171b578261171b57611713600a836123fa565b9150506116ea565b82611725816124c4565b9350611733905082826124df565b61173d9085612497565b935061174a600a836123fa565b91506117576030826123cc565b905084611763816124c4565b955050808553506116ea565b8161177d57601b915061178b565b611788601a836123cc565b91505b8185526000858b6040516020016117a39291906124fe565b60408051601f1981840301815282825280516020918201206000845290830180835281905260ff8d1691830191909152606082018b9052608082018a9052915060019060a0016020604051602081039080840390855afa15801561180b573d6000803e3d6000fd5b5050604051601f1901519c9b505050505050505050505050565b816001600160a01b0316836001600160a01b031614156118875760405162461bcd60e51b815260206004820152601960248201527f4552433732313a20617070726f766520746f2063616c6c657200000000000000604482015260640161066e565b6001600160a01b03838116600081815260056020908152604080832094871680845294825291829020805460ff191686151590811790915591519182527f17307eab39ab6107e8899845ad3d59bd9653f200f220920489ca2b5937696c31910160405180910390a3505050565b6118ff84848461149b565b61190b84848484611aa8565b610fd15760405162461bcd60e51b815260040161066e9061252d565b60606119328261134f565b6000828152600a60205260408120805461194b9061240e565b80601f01602080910402602001604051908101604052809291908181526020018280546119779061240e565b80156119c45780601f10611999576101008083540402835291602001916119c4565b820191906000526020600020905b8154815290600101906020018083116119a757829003601f168201915b5050505050905060006119ff60408051808201909152601581527468747470733a2f2f697066732e696f2f697066732f60581b602082015290565b9050805160001415611a12575092915050565b815115611a44578082604051602001611a2c9291906124fe565b60405160208183030381529060405292505050919050565b61149384611ba3565b6109e5838383611c34565b60006001600160e01b031982166380ac58cd60e01b1480611a8957506001600160e01b03198216635b5e139f60e01b145b8061081557506301ffc9a760e01b6001600160e01b0319831614610815565b60006001600160a01b0384163b15611b9b57604051630a85bd0160e11b81526001600160a01b0385169063150b7a0290611aec90339089908890889060040161257f565b6020604051808303816000875af1925050508015611b27575060408051601f3d908101601f19168201909252611b24918101906125bb565b60015b611b81573d808015611b55576040519150601f19603f3d011682016040523d82523d6000602084013e611b5a565b606091505b508051611b795760405162461bcd60e51b815260040161066e9061252d565b805181602001fd5b6001600160e01b031916630a85bd0160e11b149050611493565b506001611493565b6060611bae8261134f565b6000611be260408051808201909152601581527468747470733a2f2f697066732e696f2f697066732f60581b602082015290565b90506000815111611c025760405180602001604052806000815250611c2d565b80611c0c84611cec565b604051602001611c1d9291906124fe565b6040516020818303038152906040525b9392505050565b6001600160a01b038316611c8f57611c8a81600880546000838152600960205260408120829055600182018355919091527ff3f7a9fe364faab93b216da50a3214154f22a0a2b415b23a84c8169e8b636ee30155565b611cb2565b816001600160a01b0316836001600160a01b031614611cb257611cb28382611dea565b6001600160a01b038216611cc9576109e581611e87565b826001600160a01b0316826001600160a01b0316146109e5576109e58282611f36565b606081611d105750506040805180820190915260018152600360fc1b602082015290565b8160005b8115611d3a5780611d24816124c4565b9150611d339050600a836123fa565b9150611d14565b60008167ffffffffffffffff811115611d5557611d55612013565b6040519080825280601f01601f191660200182016040528015611d7f576020820181803683370190505b5090505b841561149357611d94600183612497565b9150611da1600a866125d8565b611dac9060306123cc565b60f81b818381518110611dc157611dc16124ae565b60200101906001600160f81b031916908160001a905350611de3600a866123fa565b9450611d83565b60006001611df784610c1c565b611e019190612497565b600083815260076020526040902054909150808214611e54576001600160a01b03841660009081526006602090815260408083208584528252808320548484528184208190558352600790915290208190555b5060009182526007602090815260408084208490556001600160a01b039094168352600681528383209183525290812055565b600854600090611e9990600190612497565b60008381526009602052604081205460088054939450909284908110611ec157611ec16124ae565b906000526020600020015490508060088381548110611ee257611ee26124ae565b6000918252602080832090910192909255828152600990915260408082208490558582528120556008805480611f1a57611f1a6125ec565b6001900381819060005260206000200160009055905550505050565b6000611f4183610c1c565b6001600160a01b039093166000908152600660209081526040808320868452825280832085905593825260079052919091209190915550565b828054611f869061240e565b90600052602060002090601f016020900481019282611fa85760008555611fee565b82601f10611fc157805160ff1916838001178555611fee565b82800160010185558215611fee579182015b82811115611fee578251825591602001919060010190611fd3565b50611ffa929150611ffe565b5090565b5b80821115611ffa5760008155600101611fff565b634e487b7160e01b600052604160045260246000fd5b600067ffffffffffffffff8084111561204457612044612013565b604051601f8501601f19908116603f0116810190828211818310171561206c5761206c612013565b8160405280935085815286868601111561208557600080fd5b858560208301376000602087830101525050509392505050565b600080604083850312156120b257600080fd5b82359150602083013567ffffffffffffffff8111156120d057600080fd5b8301601f810185136120e157600080fd5b6120f085823560208401612029565b9150509250929050565b6001600160e01b0319811681146110e557600080fd5b60006020828403121561212257600080fd5b8135611c2d816120fa565b60006020828403121561213f57600080fd5b5035919050565b60005b83811015612161578181015183820152602001612149565b83811115610fd15750506000910152565b6000815180845261218a816020860160208601612146565b601f01601f19169290920160200192915050565b602081526000611c2d6020830184612172565b80356001600160a01b03811681146121c857600080fd5b919050565b600080604083850312156121e057600080fd5b6121e9836121b1565b946020939093013593505050565b60008060006060848603121561220c57600080fd5b612215846121b1565b9250612223602085016121b1565b9150604084013590509250925092565b60006020828403121561224557600080fd5b611c2d826121b1565b6000806000806080858703121561226457600080fd5b84359350602085013560ff8116811461227c57600080fd5b93969395505050506040820135916060013590565b803580151581146121c857600080fd5b600080604083850312156122b457600080fd5b6122bd836121b1565b91506122cb60208401612291565b90509250929050565b600080600080608085870312156122ea57600080fd5b6122f3856121b1565b9350612301602086016121b1565b925060408501359150606085013567ffffffffffffffff81111561232457600080fd5b8501601f8101871361233557600080fd5b61234487823560208401612029565b91505092959194509250565b60008060006060848603121561236557600080fd5b61236e846121b1565b92506020840135915061238360408501612291565b90509250925092565b6000806040838503121561239f57600080fd5b6123a8836121b1565b91506122cb602084016121b1565b634e487b7160e01b600052601160045260246000fd5b600082198211156123df576123df6123b6565b500190565b634e487b7160e01b600052601260045260246000fd5b600082612409576124096123e4565b500490565b600181811c9082168061242257607f821691505b6020821081141561244357634e487b7160e01b600052602260045260246000fd5b50919050565b6020808252602e908201527f4552433732313a2063616c6c6572206973206e6f7420746f6b656e206f776e6560408201526d1c881b9bdc88185c1c1c9bdd995960921b606082015260800190565b6000828210156124a9576124a96123b6565b500390565b634e487b7160e01b600052603260045260246000fd5b60006000198214156124d8576124d86123b6565b5060010190565b60008160001904831182151516156124f9576124f96123b6565b500290565b60008351612510818460208801612146565b835190830190612524818360208801612146565b01949350505050565b60208082526032908201527f4552433732313a207472616e7366657220746f206e6f6e20455243373231526560408201527131b2b4bb32b91034b6b83632b6b2b73a32b960711b606082015260800190565b60006001600160a01b038087168352808616602084015250836040830152608060608301526125b16080830184612172565b9695505050505050565b6000602082840312156125cd57600080fd5b8151611c2d816120fa565b6000826125e7576125e76123e4565b500690565b634e487b7160e01b600052603160045260246000fdfea2646970667358221220bffe906bf7f27535426a4083c3f4c1c13a66d9dfd7be7f73a1b2699f6a8a035e64736f6c634300080a0033",
  "linkReferences": {},
  "deployedLinkReferences": {}
}