{
  "_format": "hh-sol-artifact-1",
  "contractName": "DixiNFT",
  "sourceName": "contracts/DixiNFT.sol",
  "abi": [
    {
      "inputs": [],
      "stateMutability": "nonpayable",
      "type": "constructor"
    },
    {
      "anonymous": false,
      "inputs": [
        {
          "indexed": true,
          "internalType": "address",
          "name": "owner",
          "type": "address"
        },
        {
          "indexed": true,
          "internalType": "address",
          "name": "approved",
          "type": "address"
        },
        {
          "indexed": true,
          "internalType": "uint256",
          "name": "tokenId",
          "type": "uint256"
        }
      ],
      "name": "Approval",
      "type": "event"
    },
    {
      "anonymous": false,
      "inputs": [
        {
          "indexed": true,
          "internalType": "address",
          "name": "owner",
          "type": "address"
        },
        {
          "indexed": true,
          "internalType": "address",
          "name": "operator",
          "type": "address"
        },
        {
          "indexed": false,
          "internalType": "bool",
          "name": "approved",
          "type": "bool"
        }
      ],
      "name": "ApprovalForAll",
      "type": "event"
    },
    {
      "anonymous": false,
      "inputs": [
        {
          "indexed": true,
          "internalType": "address",
          "name": "previousOwner",
          "type": "address"
        },
        {
          "indexed": true,
          "internalType": "address",
          "name": "newOwner",
          "type": "address"
        }
      ],
      "name": "OwnershipTransferred",
      "type": "event"
    },
    {
      "anonymous": false,
      "inputs": [
        {
          "indexed": true,
          "internalType": "address",
          "name": "from",
          "type": "address"
        },
        {
          "indexed": true,
          "internalType": "address",
          "name": "to",
          "type": "address"
        },
        {
          "indexed": true,
          "internalType": "uint256",
          "name": "tokenId",
          "type": "uint256"
        }
      ],
      "name": "Transfer",
      "type": "event"
    },
    {
      "inputs": [
        {
          "internalType": "uint256",
          "name": "",
          "type": "uint256"
        }
      ],
      "name": "_gameParticipation",
      "outputs": [
        {
          "internalType": "bool",
          "name": "",
          "type": "bool"
        }
      ],
      "stateMutability": "view",
      "type": "function"
    },
    {
      "inputs": [
        {
          "internalType": "uint256",
          "name": "",
          "type": "uint256"
        }
      ],
      "name": "_inputHashes",
      "outputs": [
        {
          "internalType": "bytes32",
          "name": "",
          "type": "bytes32"
        }
      ],
      "stateMutability": "view",
      "type": "function"
    },
    {
      "inputs": [
        {
          "internalType": "uint256",
          "name": "",
          "type": "uint256"
        }
      ],
      "name": "_minters",
      "outputs": [
        {
          "internalType": "address",
          "name": "",
          "type": "address"
        }
      ],
      "stateMutability": "view",
      "type": "function"
    },
    {
      "inputs": [
        {
          "internalType": "address",
          "name": "to",
          "type": "address"
        },
        {
          "internalType": "uint256",
          "name": "tokenId",
          "type": "uint256"
        }
      ],
      "name": "approve",
      "outputs": [],
      "stateMutability": "nonpayable",
      "type": "function"
    },
    {
      "inputs": [
        {
          "internalType": "address",
          "name": "owner",
          "type": "address"
        }
      ],
      "name": "balanceOf",
      "outputs": [
        {
          "internalType": "uint256",
          "name": "",
          "type": "uint256"
        }
      ],
      "stateMutability": "view",
      "type": "function"
    },
    {
      "inputs": [
        {
          "internalType": "uint256",
          "name": "id",
          "type": "uint256"
        }
      ],
      "name": "enterTheGame",
      "outputs": [],
      "stateMutability": "nonpayable",
      "type": "function"
    },
    {
      "inputs": [
        {
          "internalType": "uint256",
          "name": "id",
          "type": "uint256"
        }
      ],
      "name": "exitGame",
      "outputs": [],
      "stateMutability": "nonpayable",
      "type": "function"
    },
    {
      "inputs": [
        {
          "internalType": "uint256",
          "name": "tokenId",
          "type": "uint256"
        }
      ],
      "name": "getApproved",
      "outputs": [
        {
          "internalType": "address",
          "name": "",
          "type": "address"
        }
      ],
      "stateMutability": "view",
      "type": "function"
    },
    {
      "inputs": [
        {
          "internalType": "address",
          "name": "owner",
          "type": "address"
        },
        {
          "internalType": "address",
          "name": "operator",
          "type": "address"
        }
      ],
      "name": "isApprovedForAll",
      "outputs": [
        {
          "internalType": "bool",
          "name": "",
          "type": "bool"
        }
      ],
      "stateMutability": "view",
      "type": "function"
    },
    {
      "inputs": [
        {
          "internalType": "uint256",
          "name": "id",
          "type": "uint256"
        },
        {
          "internalType": "string",
          "name": "tokenURI",
          "type": "string"
        }
      ],
      "name": "mintFinalize",
      "outputs": [
        {
          "internalType": "uint256",
          "name": "",
          "type": "uint256"
        }
      ],
      "stateMutability": "nonpayable",
      "type": "function"
    },
    {
      "inputs": [
        {
          "internalType": "address",
          "name": "to",
          "type": "address"
        },
        {
          "internalType": "bytes32",
          "name": "inputHash",
          "type": "bytes32"
        },
        {
          "internalType": "bool",
          "name": "enterGame",
          "type": "bool"
        }
      ],
      "name": "mintItem",
      "outputs": [
        {
          "internalType": "uint256",
          "name": "",
          "type": "uint256"
        }
      ],
      "stateMutability": "payable",
      "type": "function"
    },
    {
      "inputs": [],
      "name": "name",
      "outputs": [
        {
          "internalType": "string",
          "name": "",
          "type": "string"
        }
      ],
      "stateMutability": "view",
      "type": "function"
    },
    {
      "inputs": [],
      "name": "owner",
      "outputs": [
        {
          "internalType": "address",
          "name": "",
          "type": "address"
        }
      ],
      "stateMutability": "view",
      "type": "function"
    },
    {
      "inputs": [
        {
          "internalType": "uint256",
          "name": "tokenId",
          "type": "uint256"
        }
      ],
      "name": "ownerOf",
      "outputs": [
        {
          "internalType": "address",
          "name": "",
          "type": "address"
        }
      ],
      "stateMutability": "view",
      "type": "function"
    },
    {
      "inputs": [],
      "name": "renounceOwnership",
      "outputs": [],
      "stateMutability": "nonpayable",
      "type": "function"
    },
    {
      "inputs": [
        {
          "internalType": "address",
          "name": "from",
          "type": "address"
        },
        {
          "internalType": "address",
          "name": "to",
          "type": "address"
        },
        {
          "internalType": "uint256",
          "name": "tokenId",
          "type": "uint256"
        }
      ],
      "name": "safeTransferFrom",
      "outputs": [],
      "stateMutability": "nonpayable",
      "type": "function"
    },
    {
      "inputs": [
        {
          "internalType": "address",
          "name": "from",
          "type": "address"
        },
        {
          "internalType": "address",
          "name": "to",
          "type": "address"
        },
        {
          "internalType": "uint256",
          "name": "tokenId",
          "type": "uint256"
        },
        {
          "internalType": "bytes",
          "name": "data",
          "type": "bytes"
        }
      ],
      "name": "safeTransferFrom",
      "outputs": [],
      "stateMutability": "nonpayable",
      "type": "function"
    },
    {
      "inputs": [
        {
          "internalType": "address",
          "name": "operator",
          "type": "address"
        },
        {
          "internalType": "bool",
          "name": "approved",
          "type": "bool"
        }
      ],
      "name": "setApprovalForAll",
      "outputs": [],
      "stateMutability": "nonpayable",
      "type": "function"
    },
    {
      "inputs": [
        {
          "internalType": "bytes4",
          "name": "interfaceId",
          "type": "bytes4"
        }
      ],
      "name": "supportsInterface",
      "outputs": [
        {
          "internalType": "bool",
          "name": "",
          "type": "bool"
        }
      ],
      "stateMutability": "view",
      "type": "function"
    },
    {
      "inputs": [],
      "name": "symbol",
      "outputs": [
        {
          "internalType": "string",
          "name": "",
          "type": "string"
        }
      ],
      "stateMutability": "view",
      "type": "function"
    },
    {
      "inputs": [
        {
          "internalType": "bytes",
          "name": "sig",
          "type": "bytes"
        },
        {
          "internalType": "uint256",
          "name": "id",
          "type": "uint256"
        }
      ],
      "name": "takeOver",
      "outputs": [],
      "stateMutability": "nonpayable",
      "type": "function"
    },
    {
      "inputs": [
        {
          "internalType": "uint256",
          "name": "index",
          "type": "uint256"
        }
      ],
      "name": "tokenByIndex",
      "outputs": [
        {
          "internalType": "uint256",
          "name": "",
          "type": "uint256"
        }
      ],
      "stateMutability": "view",
      "type": "function"
    },
    {
      "inputs": [
        {
          "internalType": "address",
          "name": "owner",
          "type": "address"
        },
        {
          "internalType": "uint256",
          "name": "index",
          "type": "uint256"
        }
      ],
      "name": "tokenOfOwnerByIndex",
      "outputs": [
        {
          "internalType": "uint256",
          "name": "",
          "type": "uint256"
        }
      ],
      "stateMutability": "view",
      "type": "function"
    },
    {
      "inputs": [
        {
          "internalType": "uint256",
          "name": "tokenId",
          "type": "uint256"
        }
      ],
      "name": "tokenURI",
      "outputs": [
        {
          "internalType": "string",
          "name": "",
          "type": "string"
        }
      ],
      "stateMutability": "view",
      "type": "function"
    },
    {
      "inputs": [],
      "name": "totalSupply",
      "outputs": [
        {
          "internalType": "uint256",
          "name": "",
          "type": "uint256"
        }
      ],
      "stateMutability": "view",
      "type": "function"
    },
    {
      "inputs": [
        {
          "internalType": "address",
          "name": "from",
          "type": "address"
        },
        {
          "internalType": "address",
          "name": "to",
          "type": "address"
        },
        {
          "internalType": "uint256",
          "name": "tokenId",
          "type": "uint256"
        }
      ],
      "name": "transferFrom",
      "outputs": [],
      "stateMutability": "nonpayable",
      "type": "function"
    },
    {
      "inputs": [
        {
          "internalType": "address",
          "name": "owner",
          "type": "address"
        }
      ],
      "name": "transferOwnership",
      "outputs": [],
      "stateMutability": "nonpayable",
      "type": "function"
    },
    {
      "inputs": [
        {
          "internalType": "uint256",
          "name": "id",
          "type": "uint256"
        },
        {
          "internalType": "string",
          "name": "phrase",
          "type": "string"
        }
      ],
      "name": "tryGuess",
      "outputs": [
        {
          "internalType": "bool",
          "name": "",
          "type": "bool"
        }
      ],
      "stateMutability": "payable",
      "type": "function"
    },
    {
      "inputs": [
        {
          "internalType": "uint256",
          "name": "amount",
          "type": "uint256"
        }
      ],
      "name": "withdraw",
      "outputs": [],
      "stateMutability": "payable",
      "type": "function"
    }
  ],
  "bytecode": "0x6080604052662386f26fc10000600d553480156200001c57600080fd5b506040805180820182526007815266111a5e1a53919560ca1b6020808301918252835180850190945260048452634449584960e01b9084015281519192916200006891600091620000f7565b5080516200007e906001906020840190620000f7565b5050506200009b62000095620000a160201b60201c565b620000a5565b620001da565b3390565b600b80546001600160a01b038381166001600160a01b0319831681179093556040519116919082907f8be0079c531659141344cd1fd0a4f28419497f9722a3daafe3b4186f6b6457e090600090a35050565b82805462000105906200019d565b90600052602060002090601f01602090048101928262000129576000855562000174565b82601f106200014457805160ff191683800117855562000174565b8280016001018555821562000174579182015b828111156200017457825182559160200191906001019062000157565b506200018292915062000186565b5090565b5b8082111562000182576000815560010162000187565b600181811c90821680620001b257607f821691505b60208210811415620001d457634e487b7160e01b600052602260045260246000fd5b50919050565b61210680620001ea6000396000f3fe6080604052600436106101c15760003560e01c80636352211e116100f7578063ab2e826411610095578063c87b56dd11610064578063c87b56dd1461051e578063cec85ccf1461053e578063e985e9c514610551578063f2fde38b1461059a57600080fd5b8063ab2e826414610491578063ad38ed4b146104b1578063b31d2322146104d1578063b88d4fde146104fe57600080fd5b806378e57c35116100d157806378e57c351461041e5780638da5cb5b1461043e57806395d89b411461045c578063a22cb4651461047157600080fd5b80636352211e146103c957806370a08231146103e9578063715018a61461040957600080fd5b806318160ddd116101645780632e1a7d4d1161013e5780632e1a7d4d146103565780632f745c591461036957806342842e0e146103895780634f6ccce7146103a957600080fd5b806318160ddd146102eb57806323b872dd146103005780632a29ad141461032057600080fd5b8063065bf7e3116101a0578063065bf7e31461023f57806306fdde031461026f578063081812fc14610291578063095ea7b3146102c957600080fd5b80629853ad146101c6578063015ca504146101f157806301ffc9a71461021f575b600080fd5b6101dc6101d4366004611b7e565b600092915050565b60405190151581526020015b60405180910390f35b3480156101fd57600080fd5b5061021161020c366004611b7e565b6105ba565b6040519081526020016101e8565b34801561022b57600080fd5b506101dc61023a366004611bef565b610617565b34801561024b57600080fd5b506101dc61025a366004611c0c565b60106020526000908152604090205460ff1681565b34801561027b57600080fd5b50610284610628565b6040516101e89190611c7d565b34801561029d57600080fd5b506102b16102ac366004611c0c565b6106ba565b6040516001600160a01b0390911681526020016101e8565b3480156102d557600080fd5b506102e96102e4366004611cac565b6106e1565b005b3480156102f757600080fd5b50600854610211565b34801561030c57600080fd5b506102e961031b366004611cd6565b6107fc565b34801561032c57600080fd5b506102b161033b366004611c0c565b600f602052600090815260409020546001600160a01b031681565b6102e9610364366004611c0c565b61082d565b34801561037557600080fd5b50610211610384366004611cac565b610873565b34801561039557600080fd5b506102e96103a4366004611cd6565b610909565b3480156103b557600080fd5b506102116103c4366004611c0c565b610924565b3480156103d557600080fd5b506102b16103e4366004611c0c565b6109b7565b3480156103f557600080fd5b50610211610404366004611d12565b610a17565b34801561041557600080fd5b506102e9610a9d565b34801561042a57600080fd5b506102e9610439366004611c0c565b610ab1565b34801561044a57600080fd5b50600b546001600160a01b03166102b1565b34801561046857600080fd5b50610284610b3c565b34801561047d57600080fd5b506102e961048c366004611d3d565b610b4b565b34801561049d57600080fd5b506102e96104ac366004611d90565b610b56565b3480156104bd57600080fd5b506102e96104cc366004611c0c565b610b94565b3480156104dd57600080fd5b506102116104ec366004611c0c565b600e6020526000908152604090205481565b34801561050a57600080fd5b506102e9610519366004611dd5565b610c23565b34801561052a57600080fd5b50610284610539366004611c0c565b610c5b565b61021161054c366004611e3d565b610c66565b34801561055d57600080fd5b506101dc61056c366004611e79565b6001600160a01b03918216600090815260056020908152604080832093909416825291909152205460ff1690565b3480156105a657600080fd5b506102e96105b5366004611d12565b610d41565b60006105c4610d55565b6064600d546105d39190611ecf565b600d546105e09190611ee3565b600d556000838152600f60205260409020546001600160a01b03166106058185610daf565b61060f8484610efd565b509192915050565b600061062282610f97565b92915050565b60606000805461063790611efb565b80601f016020809104026020016040519081016040528092919081815260200182805461066390611efb565b80156106b05780601f10610685576101008083540402835291602001916106b0565b820191906000526020600020905b81548152906001019060200180831161069357829003601f168201915b5050505050905090565b60006106c582610fbc565b506000908152600460205260409020546001600160a01b031690565b60006106ec826109b7565b9050806001600160a01b0316836001600160a01b0316141561075f5760405162461bcd60e51b815260206004820152602160248201527f4552433732313a20617070726f76616c20746f2063757272656e74206f776e656044820152603960f91b60648201526084015b60405180910390fd5b336001600160a01b038216148061077b575061077b813361056c565b6107ed5760405162461bcd60e51b815260206004820152603e60248201527f4552433732313a20617070726f76652063616c6c6572206973206e6f7420746f60448201527f6b656e206f776e6572206e6f7220617070726f76656420666f7220616c6c00006064820152608401610756565b6107f7838361101b565b505050565b6108063382611089565b6108225760405162461bcd60e51b815260040161075690611f36565b6107f7838383611108565b610835610d55565b600b546040516001600160a01b039091169082156108fc029083906000818181858888f1935050505015801561086f573d6000803e3d6000fd5b5050565b600061087e83610a17565b82106108e05760405162461bcd60e51b815260206004820152602b60248201527f455243373231456e756d657261626c653a206f776e657220696e646578206f7560448201526a74206f6620626f756e647360a81b6064820152608401610756565b506001600160a01b03919091166000908152600660209081526040808320938352929052205490565b6107f783838360405180602001604052806000815250610c23565b600061092f60085490565b82106109925760405162461bcd60e51b815260206004820152602c60248201527f455243373231456e756d657261626c653a20676c6f62616c20696e646578206f60448201526b7574206f6620626f756e647360a01b6064820152608401610756565b600882815481106109a5576109a5611f84565b90600052602060002001549050919050565b6000818152600260205260408120546001600160a01b0316806106225760405162461bcd60e51b8152602060048201526018602482015277115490cdcc8c4e881a5b9d985b1a59081d1bdad95b88125160421b6044820152606401610756565b60006001600160a01b038216610a815760405162461bcd60e51b815260206004820152602960248201527f4552433732313a2061646472657373207a65726f206973206e6f7420612076616044820152683634b21037bbb732b960b91b6064820152608401610756565b506001600160a01b031660009081526003602052604090205490565b610aa5610d55565b610aaf60006112af565b565b6000818152600f60205260409020546001600160a01b03163314610b215760405162461bcd60e51b815260206004820152602160248201527f4f6e6c79204e4654206f776e65722063616e20656e746572207468652047616d6044820152606560f81b6064820152608401610756565b6000908152601060205260409020805460ff19166001179055565b60606001805461063790611efb565b61086f338383611301565b60405162461bcd60e51b815260206004820152601360248201527214da59db985d1d5c99481a5b98dbdc9c9958dd606a1b6044820152606401610756565b6000818152600f60205260409020546001600160a01b03163314610c0b5760405162461bcd60e51b815260206004820152602860248201527f4f6e6c79206f776e65722063616e2074616b6520686973204e4654206f6666206044820152677468652047616d6560c01b6064820152608401610756565b6000908152601060205260409020805460ff19169055565b610c2d3383611089565b610c495760405162461bcd60e51b815260040161075690611f36565b610c55848484846113d0565b50505050565b606061062282611403565b6000600d54341015610cd35760405162461bcd60e51b815260206004820152603060248201527f506c6561736520636865636b2063757272656e742070726963652c206974277360448201526f20616c7265616479206869676865722160801b6064820152608401610756565b610ce1600c80546001019055565b6000610cec600c5490565b6000818152600e60209081526040808320889055600f825280832080546001600160a01b038b166001600160a01b031990911617905560109091529020805485151560ff199091161790559150509392505050565b610d49610d55565b610d5281610d41565b50565b600b546001600160a01b03163314610aaf5760405162461bcd60e51b815260206004820181905260248201527f4f776e61626c653a2063616c6c6572206973206e6f7420746865206f776e65726044820152606401610756565b6001600160a01b038216610e055760405162461bcd60e51b815260206004820181905260248201527f4552433732313a206d696e7420746f20746865207a65726f20616464726573736044820152606401610756565b6000818152600260205260409020546001600160a01b031615610e6a5760405162461bcd60e51b815260206004820152601c60248201527f4552433732313a20746f6b656e20616c7265616479206d696e746564000000006044820152606401610756565b610e7660008383611529565b6001600160a01b0382166000908152600360205260408120805460019290610e9f908490611ee3565b909155505060008181526002602052604080822080546001600160a01b0319166001600160a01b03861690811790915590518392907fddf252ad1be2c89b69c2b068fc378daa952ba7f163c4a11628f55a4df523b3ef908290a45050565b6000828152600260205260409020546001600160a01b0316610f785760405162461bcd60e51b815260206004820152602e60248201527f45524337323155524953746f726167653a2055524920736574206f66206e6f6e60448201526d32bc34b9ba32b73a103a37b5b2b760911b6064820152608401610756565b6000828152600a6020908152604090912082516107f792840190611a59565b60006001600160e01b0319821663780e9d6360e01b1480610622575061062282611534565b6000818152600260205260409020546001600160a01b0316610d525760405162461bcd60e51b8152602060048201526018602482015277115490cdcc8c4e881a5b9d985b1a59081d1bdad95b88125160421b6044820152606401610756565b600081815260046020526040902080546001600160a01b0319166001600160a01b0384169081179091558190611050826109b7565b6001600160a01b03167f8c5be1e5ebec7d5bd14f71427d1e84f3dd0314c0f7b2291e5b200ac8c7c3b92560405160405180910390a45050565b600080611095836109b7565b9050806001600160a01b0316846001600160a01b031614806110dc57506001600160a01b0380821660009081526005602090815260408083209388168352929052205460ff165b806111005750836001600160a01b03166110f5846106ba565b6001600160a01b0316145b949350505050565b826001600160a01b031661111b826109b7565b6001600160a01b03161461117f5760405162461bcd60e51b815260206004820152602560248201527f4552433732313a207472616e736665722066726f6d20696e636f72726563742060448201526437bbb732b960d91b6064820152608401610756565b6001600160a01b0382166111e15760405162461bcd60e51b8152602060048201526024808201527f4552433732313a207472616e7366657220746f20746865207a65726f206164646044820152637265737360e01b6064820152608401610756565b6111ec838383611529565b6111f760008261101b565b6001600160a01b0383166000908152600360205260408120805460019290611220908490611f9a565b90915550506001600160a01b038216600090815260036020526040812080546001929061124e908490611ee3565b909155505060008181526002602052604080822080546001600160a01b0319166001600160a01b0386811691821790925591518493918716917fddf252ad1be2c89b69c2b068fc378daa952ba7f163c4a11628f55a4df523b3ef91a4505050565b600b80546001600160a01b038381166001600160a01b0319831681179093556040519116919082907f8be0079c531659141344cd1fd0a4f28419497f9722a3daafe3b4186f6b6457e090600090a35050565b816001600160a01b0316836001600160a01b031614156113635760405162461bcd60e51b815260206004820152601960248201527f4552433732313a20617070726f766520746f2063616c6c6572000000000000006044820152606401610756565b6001600160a01b03838116600081815260056020908152604080832094871680845294825291829020805460ff191686151590811790915591519182527f17307eab39ab6107e8899845ad3d59bd9653f200f220920489ca2b5937696c31910160405180910390a3505050565b6113db848484611108565b6113e784848484611584565b610c555760405162461bcd60e51b815260040161075690611fb1565b606061140e82610fbc565b6000828152600a60205260408120805461142790611efb565b80601f016020809104026020016040519081016040528092919081815260200182805461145390611efb565b80156114a05780601f10611475576101008083540402835291602001916114a0565b820191906000526020600020905b81548152906001019060200180831161148357829003601f168201915b5050505050905060006114db60408051808201909152601581527468747470733a2f2f697066732e696f2f697066732f60581b602082015290565b90508051600014156114ee575092915050565b815115611520578082604051602001611508929190612003565b60405160208183030381529060405292505050919050565b61110084611682565b6107f7838383611713565b60006001600160e01b031982166380ac58cd60e01b148061156557506001600160e01b03198216635b5e139f60e01b145b8061062257506301ffc9a760e01b6001600160e01b0319831614610622565b60006001600160a01b0384163b1561167757604051630a85bd0160e11b81526001600160a01b0385169063150b7a02906115c8903390899088908890600401612032565b6020604051808303816000875af1925050508015611603575060408051601f3d908101601f191682019092526116009181019061206e565b60015b61165d573d808015611631576040519150601f19603f3d011682016040523d82523d6000602084013e611636565b606091505b5080516116555760405162461bcd60e51b815260040161075690611fb1565b805181602001fd5b6001600160e01b031916630a85bd0160e11b149050611100565b506001949350505050565b606061168d82610fbc565b60006116c160408051808201909152601581527468747470733a2f2f697066732e696f2f697066732f60581b602082015290565b905060008151116116e1576040518060200160405280600081525061170c565b806116eb846117cb565b6040516020016116fc929190612003565b6040516020818303038152906040525b9392505050565b6001600160a01b03831661176e5761176981600880546000838152600960205260408120829055600182018355919091527ff3f7a9fe364faab93b216da50a3214154f22a0a2b415b23a84c8169e8b636ee30155565b611791565b816001600160a01b0316836001600160a01b0316146117915761179183826118c9565b6001600160a01b0382166117a8576107f781611966565b826001600160a01b0316826001600160a01b0316146107f7576107f78282611a15565b6060816117ef5750506040805180820190915260018152600360fc1b602082015290565b8160005b811561181957806118038161208b565b91506118129050600a83611ecf565b91506117f3565b60008167ffffffffffffffff81111561183457611834611af2565b6040519080825280601f01601f19166020018201604052801561185e576020820181803683370190505b5090505b841561110057611873600183611f9a565b9150611880600a866120a6565b61188b906030611ee3565b60f81b8183815181106118a0576118a0611f84565b60200101906001600160f81b031916908160001a9053506118c2600a86611ecf565b9450611862565b600060016118d684610a17565b6118e09190611f9a565b600083815260076020526040902054909150808214611933576001600160a01b03841660009081526006602090815260408083208584528252808320548484528184208190558352600790915290208190555b5060009182526007602090815260408084208490556001600160a01b039094168352600681528383209183525290812055565b60085460009061197890600190611f9a565b600083815260096020526040812054600880549394509092849081106119a0576119a0611f84565b9060005260206000200154905080600883815481106119c1576119c1611f84565b60009182526020808320909101929092558281526009909152604080822084905585825281205560088054806119f9576119f96120ba565b6001900381819060005260206000200160009055905550505050565b6000611a2083610a17565b6001600160a01b039093166000908152600660209081526040808320868452825280832085905593825260079052919091209190915550565b828054611a6590611efb565b90600052602060002090601f016020900481019282611a875760008555611acd565b82601f10611aa057805160ff1916838001178555611acd565b82800160010185558215611acd579182015b82811115611acd578251825591602001919060010190611ab2565b50611ad9929150611add565b5090565b5b80821115611ad95760008155600101611ade565b634e487b7160e01b600052604160045260246000fd5b600067ffffffffffffffff80841115611b2357611b23611af2565b604051601f8501601f19908116603f01168101908282118183101715611b4b57611b4b611af2565b81604052809350858152868686011115611b6457600080fd5b858560208301376000602087830101525050509392505050565b60008060408385031215611b9157600080fd5b82359150602083013567ffffffffffffffff811115611baf57600080fd5b8301601f81018513611bc057600080fd5b611bcf85823560208401611b08565b9150509250929050565b6001600160e01b031981168114610d5257600080fd5b600060208284031215611c0157600080fd5b813561170c81611bd9565b600060208284031215611c1e57600080fd5b5035919050565b60005b83811015611c40578181015183820152602001611c28565b83811115610c555750506000910152565b60008151808452611c69816020860160208601611c25565b601f01601f19169290920160200192915050565b60208152600061170c6020830184611c51565b80356001600160a01b0381168114611ca757600080fd5b919050565b60008060408385031215611cbf57600080fd5b611cc883611c90565b946020939093013593505050565b600080600060608486031215611ceb57600080fd5b611cf484611c90565b9250611d0260208501611c90565b9150604084013590509250925092565b600060208284031215611d2457600080fd5b61170c82611c90565b80358015158114611ca757600080fd5b60008060408385031215611d5057600080fd5b611d5983611c90565b9150611d6760208401611d2d565b90509250929050565b600082601f830112611d8157600080fd5b61170c83833560208501611b08565b60008060408385031215611da357600080fd5b823567ffffffffffffffff811115611dba57600080fd5b611dc685828601611d70565b95602094909401359450505050565b60008060008060808587031215611deb57600080fd5b611df485611c90565b9350611e0260208601611c90565b925060408501359150606085013567ffffffffffffffff811115611e2557600080fd5b611e3187828801611d70565b91505092959194509250565b600080600060608486031215611e5257600080fd5b611e5b84611c90565b925060208401359150611e7060408501611d2d565b90509250925092565b60008060408385031215611e8c57600080fd5b611e9583611c90565b9150611d6760208401611c90565b634e487b7160e01b600052601260045260246000fd5b634e487b7160e01b600052601160045260246000fd5b600082611ede57611ede611ea3565b500490565b60008219821115611ef657611ef6611eb9565b500190565b600181811c90821680611f0f57607f821691505b60208210811415611f3057634e487b7160e01b600052602260045260246000fd5b50919050565b6020808252602e908201527f4552433732313a2063616c6c6572206973206e6f7420746f6b656e206f776e6560408201526d1c881b9bdc88185c1c1c9bdd995960921b606082015260800190565b634e487b7160e01b600052603260045260246000fd5b600082821015611fac57611fac611eb9565b500390565b60208082526032908201527f4552433732313a207472616e7366657220746f206e6f6e20455243373231526560408201527131b2b4bb32b91034b6b83632b6b2b73a32b960711b606082015260800190565b60008351612015818460208801611c25565b835190830190612029818360208801611c25565b01949350505050565b60006001600160a01b038087168352808616602084015250836040830152608060608301526120646080830184611c51565b9695505050505050565b60006020828403121561208057600080fd5b815161170c81611bd9565b600060001982141561209f5761209f611eb9565b5060010190565b6000826120b5576120b5611ea3565b500690565b634e487b7160e01b600052603160045260246000fdfea2646970667358221220b98dd45d8be5c075e7f5af1a5db5a3bba8a9304be53a2f6208884292392bad6864736f6c634300080a0033",
  "linkReferences": {},
  "deployedLinkReferences": {}
}