{
  "_format": "hh-sol-artifact-1",
  "contractName": "DixiNFT",
  "sourceName": "contracts/DixiNFT.sol",
  "abi": [
    {
      "inputs": [],
      "stateMutability": "nonpayable",
      "type": "constructor"
    },
    {
      "anonymous": false,
      "inputs": [
        {
          "indexed": true,
          "internalType": "address",
          "name": "owner",
          "type": "address"
        },
        {
          "indexed": true,
          "internalType": "address",
          "name": "approved",
          "type": "address"
        },
        {
          "indexed": true,
          "internalType": "uint256",
          "name": "tokenId",
          "type": "uint256"
        }
      ],
      "name": "Approval",
      "type": "event"
    },
    {
      "anonymous": false,
      "inputs": [
        {
          "indexed": true,
          "internalType": "address",
          "name": "owner",
          "type": "address"
        },
        {
          "indexed": true,
          "internalType": "address",
          "name": "operator",
          "type": "address"
        },
        {
          "indexed": false,
          "internalType": "bool",
          "name": "approved",
          "type": "bool"
        }
      ],
      "name": "ApprovalForAll",
      "type": "event"
    },
    {
      "anonymous": false,
      "inputs": [
        {
          "indexed": true,
          "internalType": "address",
          "name": "previousOwner",
          "type": "address"
        },
        {
          "indexed": true,
          "internalType": "address",
          "name": "newOwner",
          "type": "address"
        }
      ],
      "name": "OwnershipTransferred",
      "type": "event"
    },
    {
      "anonymous": false,
      "inputs": [
        {
          "indexed": true,
          "internalType": "address",
          "name": "from",
          "type": "address"
        },
        {
          "indexed": true,
          "internalType": "address",
          "name": "to",
          "type": "address"
        },
        {
          "indexed": true,
          "internalType": "uint256",
          "name": "tokenId",
          "type": "uint256"
        }
      ],
      "name": "Transfer",
      "type": "event"
    },
    {
      "inputs": [
        {
          "internalType": "uint256",
          "name": "",
          "type": "uint256"
        }
      ],
      "name": "_gameParticipation",
      "outputs": [
        {
          "internalType": "bool",
          "name": "",
          "type": "bool"
        }
      ],
      "stateMutability": "view",
      "type": "function"
    },
    {
      "inputs": [
        {
          "internalType": "uint256",
          "name": "",
          "type": "uint256"
        }
      ],
      "name": "_inputHashes",
      "outputs": [
        {
          "internalType": "bytes32",
          "name": "",
          "type": "bytes32"
        }
      ],
      "stateMutability": "view",
      "type": "function"
    },
    {
      "inputs": [
        {
          "internalType": "uint256",
          "name": "",
          "type": "uint256"
        }
      ],
      "name": "_minters",
      "outputs": [
        {
          "internalType": "address",
          "name": "",
          "type": "address"
        }
      ],
      "stateMutability": "view",
      "type": "function"
    },
    {
      "inputs": [
        {
          "internalType": "address",
          "name": "to",
          "type": "address"
        },
        {
          "internalType": "uint256",
          "name": "tokenId",
          "type": "uint256"
        }
      ],
      "name": "approve",
      "outputs": [],
      "stateMutability": "nonpayable",
      "type": "function"
    },
    {
      "inputs": [
        {
          "internalType": "address",
          "name": "owner",
          "type": "address"
        }
      ],
      "name": "balanceOf",
      "outputs": [
        {
          "internalType": "uint256",
          "name": "",
          "type": "uint256"
        }
      ],
      "stateMutability": "view",
      "type": "function"
    },
    {
      "inputs": [
        {
          "internalType": "uint256",
          "name": "id",
          "type": "uint256"
        }
      ],
      "name": "enterTheGame",
      "outputs": [],
      "stateMutability": "nonpayable",
      "type": "function"
    },
    {
      "inputs": [
        {
          "internalType": "uint256",
          "name": "id",
          "type": "uint256"
        }
      ],
      "name": "exitGame",
      "outputs": [],
      "stateMutability": "nonpayable",
      "type": "function"
    },
    {
      "inputs": [
        {
          "internalType": "uint256",
          "name": "tokenId",
          "type": "uint256"
        }
      ],
      "name": "getApproved",
      "outputs": [
        {
          "internalType": "address",
          "name": "",
          "type": "address"
        }
      ],
      "stateMutability": "view",
      "type": "function"
    },
    {
      "inputs": [],
      "name": "getCurrentPrice",
      "outputs": [
        {
          "internalType": "uint256",
          "name": "",
          "type": "uint256"
        }
      ],
      "stateMutability": "view",
      "type": "function"
    },
    {
      "inputs": [
        {
          "internalType": "address",
          "name": "owner",
          "type": "address"
        },
        {
          "internalType": "address",
          "name": "operator",
          "type": "address"
        }
      ],
      "name": "isApprovedForAll",
      "outputs": [
        {
          "internalType": "bool",
          "name": "",
          "type": "bool"
        }
      ],
      "stateMutability": "view",
      "type": "function"
    },
    {
      "inputs": [
        {
          "internalType": "uint256",
          "name": "id",
          "type": "uint256"
        },
        {
          "internalType": "string",
          "name": "ipfsTokenUri",
          "type": "string"
        }
      ],
      "name": "mintFinalize",
      "outputs": [
        {
          "internalType": "uint256",
          "name": "",
          "type": "uint256"
        }
      ],
      "stateMutability": "nonpayable",
      "type": "function"
    },
    {
      "inputs": [
        {
          "internalType": "address",
          "name": "to",
          "type": "address"
        },
        {
          "internalType": "bytes32",
          "name": "inputHash",
          "type": "bytes32"
        },
        {
          "internalType": "bool",
          "name": "enterGame",
          "type": "bool"
        }
      ],
      "name": "mintItem",
      "outputs": [
        {
          "internalType": "uint256",
          "name": "",
          "type": "uint256"
        }
      ],
      "stateMutability": "payable",
      "type": "function"
    },
    {
      "inputs": [],
      "name": "name",
      "outputs": [
        {
          "internalType": "string",
          "name": "",
          "type": "string"
        }
      ],
      "stateMutability": "view",
      "type": "function"
    },
    {
      "inputs": [],
      "name": "owner",
      "outputs": [
        {
          "internalType": "address",
          "name": "",
          "type": "address"
        }
      ],
      "stateMutability": "view",
      "type": "function"
    },
    {
      "inputs": [
        {
          "internalType": "uint256",
          "name": "tokenId",
          "type": "uint256"
        }
      ],
      "name": "ownerOf",
      "outputs": [
        {
          "internalType": "address",
          "name": "",
          "type": "address"
        }
      ],
      "stateMutability": "view",
      "type": "function"
    },
    {
      "inputs": [],
      "name": "renounceOwnership",
      "outputs": [],
      "stateMutability": "nonpayable",
      "type": "function"
    },
    {
      "inputs": [
        {
          "internalType": "address",
          "name": "from",
          "type": "address"
        },
        {
          "internalType": "address",
          "name": "to",
          "type": "address"
        },
        {
          "internalType": "uint256",
          "name": "tokenId",
          "type": "uint256"
        }
      ],
      "name": "safeTransferFrom",
      "outputs": [],
      "stateMutability": "nonpayable",
      "type": "function"
    },
    {
      "inputs": [
        {
          "internalType": "address",
          "name": "from",
          "type": "address"
        },
        {
          "internalType": "address",
          "name": "to",
          "type": "address"
        },
        {
          "internalType": "uint256",
          "name": "tokenId",
          "type": "uint256"
        },
        {
          "internalType": "bytes",
          "name": "data",
          "type": "bytes"
        }
      ],
      "name": "safeTransferFrom",
      "outputs": [],
      "stateMutability": "nonpayable",
      "type": "function"
    },
    {
      "inputs": [
        {
          "internalType": "address",
          "name": "operator",
          "type": "address"
        },
        {
          "internalType": "bool",
          "name": "approved",
          "type": "bool"
        }
      ],
      "name": "setApprovalForAll",
      "outputs": [],
      "stateMutability": "nonpayable",
      "type": "function"
    },
    {
      "inputs": [
        {
          "internalType": "bytes4",
          "name": "interfaceId",
          "type": "bytes4"
        }
      ],
      "name": "supportsInterface",
      "outputs": [
        {
          "internalType": "bool",
          "name": "",
          "type": "bool"
        }
      ],
      "stateMutability": "view",
      "type": "function"
    },
    {
      "inputs": [],
      "name": "symbol",
      "outputs": [
        {
          "internalType": "string",
          "name": "",
          "type": "string"
        }
      ],
      "stateMutability": "view",
      "type": "function"
    },
    {
      "inputs": [
        {
          "internalType": "uint256",
          "name": "id",
          "type": "uint256"
        },
        {
          "internalType": "uint8",
          "name": "v",
          "type": "uint8"
        },
        {
          "internalType": "bytes32",
          "name": "r",
          "type": "bytes32"
        },
        {
          "internalType": "bytes32",
          "name": "s",
          "type": "bytes32"
        }
      ],
      "name": "takeOver",
      "outputs": [],
      "stateMutability": "nonpayable",
      "type": "function"
    },
    {
      "inputs": [
        {
          "internalType": "uint256",
          "name": "index",
          "type": "uint256"
        }
      ],
      "name": "tokenByIndex",
      "outputs": [
        {
          "internalType": "uint256",
          "name": "",
          "type": "uint256"
        }
      ],
      "stateMutability": "view",
      "type": "function"
    },
    {
      "inputs": [
        {
          "internalType": "address",
          "name": "owner",
          "type": "address"
        },
        {
          "internalType": "uint256",
          "name": "index",
          "type": "uint256"
        }
      ],
      "name": "tokenOfOwnerByIndex",
      "outputs": [
        {
          "internalType": "uint256",
          "name": "",
          "type": "uint256"
        }
      ],
      "stateMutability": "view",
      "type": "function"
    },
    {
      "inputs": [
        {
          "internalType": "uint256",
          "name": "tokenId",
          "type": "uint256"
        }
      ],
      "name": "tokenURI",
      "outputs": [
        {
          "internalType": "string",
          "name": "",
          "type": "string"
        }
      ],
      "stateMutability": "view",
      "type": "function"
    },
    {
      "inputs": [],
      "name": "totalSupply",
      "outputs": [
        {
          "internalType": "uint256",
          "name": "",
          "type": "uint256"
        }
      ],
      "stateMutability": "view",
      "type": "function"
    },
    {
      "inputs": [
        {
          "internalType": "address",
          "name": "from",
          "type": "address"
        },
        {
          "internalType": "address",
          "name": "to",
          "type": "address"
        },
        {
          "internalType": "uint256",
          "name": "tokenId",
          "type": "uint256"
        }
      ],
      "name": "transferFrom",
      "outputs": [],
      "stateMutability": "nonpayable",
      "type": "function"
    },
    {
      "inputs": [
        {
          "internalType": "address",
          "name": "owner",
          "type": "address"
        }
      ],
      "name": "transferOwnership",
      "outputs": [],
      "stateMutability": "nonpayable",
      "type": "function"
    },
    {
      "inputs": [
        {
          "internalType": "uint256",
          "name": "id",
          "type": "uint256"
        },
        {
          "internalType": "string",
          "name": "phrase",
          "type": "string"
        }
      ],
      "name": "tryGuess",
      "outputs": [
        {
          "internalType": "bool",
          "name": "",
          "type": "bool"
        }
      ],
      "stateMutability": "payable",
      "type": "function"
    },
    {
      "inputs": [
        {
          "internalType": "uint256",
          "name": "amount",
          "type": "uint256"
        }
      ],
      "name": "withdraw",
      "outputs": [],
      "stateMutability": "payable",
      "type": "function"
    }
  ],
  "bytecode": "0x6080604052662386f26fc10000600d553480156200001c57600080fd5b506040805180820182526007815266111a5e1a53919560ca1b6020808301918252835180850190945260048452634449584960e01b9084015281519192916200006891600091620000f7565b5080516200007e906001906020840190620000f7565b5050506200009b62000095620000a160201b60201c565b620000a5565b620001da565b3390565b600b80546001600160a01b038381166001600160a01b0319831681179093556040519116919082907f8be0079c531659141344cd1fd0a4f28419497f9722a3daafe3b4186f6b6457e090600090a35050565b82805462000105906200019d565b90600052602060002090601f01602090048101928262000129576000855562000174565b82601f106200014457805160ff191683800117855562000174565b8280016001018555821562000174579182015b828111156200017457825182559160200191906001019062000157565b506200018292915062000186565b5090565b5b8082111562000182576000815560010162000187565b600181811c90821680620001b257607f821691505b60208210811415620001d457634e487b7160e01b600052602260045260246000fd5b50919050565b61242380620001ea6000396000f3fe6080604052600436106101cc5760003560e01c806370a08231116100f7578063ad38ed4b11610095578063cec85ccf11610064578063cec85ccf14610549578063e985e9c51461055c578063eb91d37e146105a5578063f2fde38b146105ba57600080fd5b8063ad38ed4b146104bc578063b31d2322146104dc578063b88d4fde14610509578063c87b56dd1461052957600080fd5b80638cd49dfb116100d15780638cd49dfb146104495780638da5cb5b1461046957806395d89b4114610487578063a22cb4651461049c57600080fd5b806370a08231146103f4578063715018a61461041457806378e57c351461042957600080fd5b806318160ddd1161016f5780632f745c591161013e5780632f745c591461037457806342842e0e146103945780634f6ccce7146103b45780636352211e146103d457600080fd5b806318160ddd146102f657806323b872dd1461030b5780632a29ad141461032b5780632e1a7d4d1461036157600080fd5b8063065bf7e3116101ab578063065bf7e31461024a57806306fdde031461027a578063081812fc1461029c578063095ea7b3146102d457600080fd5b80629853ad146101d1578063015ca504146101fc57806301ffc9a71461022a575b600080fd5b6101e76101df366004611e8a565b600092915050565b60405190151581526020015b60405180910390f35b34801561020857600080fd5b5061021c610217366004611e8a565b6105da565b6040519081526020016101f3565b34801561023657600080fd5b506101e7610245366004611efb565b610637565b34801561025657600080fd5b506101e7610265366004611f18565b60116020526000908152604090205460ff1681565b34801561028657600080fd5b5061028f610648565b6040516101f39190611f89565b3480156102a857600080fd5b506102bc6102b7366004611f18565b6106da565b6040516001600160a01b0390911681526020016101f3565b3480156102e057600080fd5b506102f46102ef366004611fb8565b610701565b005b34801561030257600080fd5b5060085461021c565b34801561031757600080fd5b506102f4610326366004611fe2565b61081c565b34801561033757600080fd5b506102bc610346366004611f18565b600f602052600090815260409020546001600160a01b031681565b6102f461036f366004611f18565b61084d565b34801561038057600080fd5b5061021c61038f366004611fb8565b610893565b3480156103a057600080fd5b506102f46103af366004611fe2565b610929565b3480156103c057600080fd5b5061021c6103cf366004611f18565b610944565b3480156103e057600080fd5b506102bc6103ef366004611f18565b6109d7565b34801561040057600080fd5b5061021c61040f36600461201e565b610a37565b34801561042057600080fd5b506102f4610abd565b34801561043557600080fd5b506102f4610444366004611f18565b610ad1565b34801561045557600080fd5b506102f4610464366004612039565b610b5c565b34801561047557600080fd5b50600b546001600160a01b03166102bc565b34801561049357600080fd5b5061028f610cf8565b3480156104a857600080fd5b506102f46104b736600461208c565b610d07565b3480156104c857600080fd5b506102f46104d7366004611f18565b610d12565b3480156104e857600080fd5b5061021c6104f7366004611f18565b600e6020526000908152604090205481565b34801561051557600080fd5b506102f46105243660046120bf565b610da1565b34801561053557600080fd5b5061028f610544366004611f18565b610dd9565b61021c61055736600461213b565b610de4565b34801561056857600080fd5b506101e7610577366004612177565b6001600160a01b03918216600090815260056020908152604080832093909416825291909152205460ff1690565b3480156105b157600080fd5b50600d5461021c565b3480156105c657600080fd5b506102f46105d536600461201e565b610ebf565b60006105e4610ed3565b60c8600d546105f391906121cd565b600d5461060091906121e1565b600d556000838152600f60205260409020546001600160a01b03166106258185610f2d565b61062f848461107b565b509192915050565b600061064282611115565b92915050565b606060008054610657906121f9565b80601f0160208091040260200160405190810160405280929190818152602001828054610683906121f9565b80156106d05780601f106106a5576101008083540402835291602001916106d0565b820191906000526020600020905b8154815290600101906020018083116106b357829003601f168201915b5050505050905090565b60006106e58261113a565b506000908152600460205260409020546001600160a01b031690565b600061070c826109d7565b9050806001600160a01b0316836001600160a01b0316141561077f5760405162461bcd60e51b815260206004820152602160248201527f4552433732313a20617070726f76616c20746f2063757272656e74206f776e656044820152603960f91b60648201526084015b60405180910390fd5b336001600160a01b038216148061079b575061079b8133610577565b61080d5760405162461bcd60e51b815260206004820152603e60248201527f4552433732313a20617070726f76652063616c6c6572206973206e6f7420746f60448201527f6b656e206f776e6572206e6f7220617070726f76656420666f7220616c6c00006064820152608401610776565b6108178383611199565b505050565b6108263382611207565b6108425760405162461bcd60e51b815260040161077690612234565b610817838383611286565b610855610ed3565b600b546040516001600160a01b039091169082156108fc029083906000818181858888f1935050505015801561088f573d6000803e3d6000fd5b5050565b600061089e83610a37565b82106109005760405162461bcd60e51b815260206004820152602b60248201527f455243373231456e756d657261626c653a206f776e657220696e646578206f7560448201526a74206f6620626f756e647360a81b6064820152608401610776565b506001600160a01b03919091166000908152600660209081526040808320938352929052205490565b61081783838360405180602001604052806000815250610da1565b600061094f60085490565b82106109b25760405162461bcd60e51b815260206004820152602c60248201527f455243373231456e756d657261626c653a20676c6f62616c20696e646578206f60448201526b7574206f6620626f756e647360a01b6064820152608401610776565b600882815481106109c5576109c5612282565b90600052602060002001549050919050565b6000818152600260205260408120546001600160a01b0316806106425760405162461bcd60e51b8152602060048201526018602482015277115490cdcc8c4e881a5b9d985b1a59081d1bdad95b88125160421b6044820152606401610776565b60006001600160a01b038216610aa15760405162461bcd60e51b815260206004820152602960248201527f4552433732313a2061646472657373207a65726f206973206e6f7420612076616044820152683634b21037bbb732b960b91b6064820152608401610776565b506001600160a01b031660009081526003602052604090205490565b610ac5610ed3565b610acf600061142d565b565b6000818152600f60205260409020546001600160a01b03163314610b415760405162461bcd60e51b815260206004820152602160248201527f4f6e6c79204e4654206f776e65722063616e20656e746572207468652047616d6044820152606560f81b6064820152608401610776565b6000908152601160205260409020805460ff19166001179055565b60008481526011602052604090205460ff16610bd85760405162461bcd60e51b815260206004820152603560248201527f54686973204e4654206f776e65722064656369646564206e6f7420746f20706160448201527472746963697061746520696e207468652047616d6560581b6064820152608401610776565b60008433604051602001610c0892919091825260601b6bffffffffffffffffffffffff1916602082015260340190565b60405160208183030381529060405290506000610c278286868661147f565b9050610c3b600b546001600160a01b031690565b6001600160a01b0316816001600160a01b031614610cc3576040805162461bcd60e51b81526020600482015260248101919091527f5369676e617475726520696e636f72726563742e2044696420796f752061637460448201527f75616c6c792077696e20746f2074616b65206f7665722074686973204e46543f6064820152608401610776565b610ccd3387610701565b600086815260106020526040902054610cf0906001600160a01b0316338861081c565b505050505050565b606060018054610657906121f9565b61088f338383611610565b6000818152600f60205260409020546001600160a01b03163314610d895760405162461bcd60e51b815260206004820152602860248201527f4f6e6c79206f776e65722063616e2074616b6520686973204e4654206f6666206044820152677468652047616d6560c01b6064820152608401610776565b6000908152601160205260409020805460ff19169055565b610dab3383611207565b610dc75760405162461bcd60e51b815260040161077690612234565b610dd3848484846116df565b50505050565b606061064282611712565b6000600d54341015610e515760405162461bcd60e51b815260206004820152603060248201527f506c6561736520636865636b2063757272656e742070726963652c206974277360448201526f20616c7265616479206869676865722160801b6064820152608401610776565b610e5f600c80546001019055565b6000610e6a600c5490565b6000818152600e60209081526040808320889055600f825280832080546001600160a01b038b166001600160a01b031990911617905560119091529020805485151560ff199091161790559150509392505050565b610ec7610ed3565b610ed081610ebf565b50565b600b546001600160a01b03163314610acf5760405162461bcd60e51b815260206004820181905260248201527f4f776e61626c653a2063616c6c6572206973206e6f7420746865206f776e65726044820152606401610776565b6001600160a01b038216610f835760405162461bcd60e51b815260206004820181905260248201527f4552433732313a206d696e7420746f20746865207a65726f20616464726573736044820152606401610776565b6000818152600260205260409020546001600160a01b031615610fe85760405162461bcd60e51b815260206004820152601c60248201527f4552433732313a20746f6b656e20616c7265616479206d696e746564000000006044820152606401610776565b610ff460008383611838565b6001600160a01b038216600090815260036020526040812080546001929061101d9084906121e1565b909155505060008181526002602052604080822080546001600160a01b0319166001600160a01b03861690811790915590518392907fddf252ad1be2c89b69c2b068fc378daa952ba7f163c4a11628f55a4df523b3ef908290a45050565b6000828152600260205260409020546001600160a01b03166110f65760405162461bcd60e51b815260206004820152602e60248201527f45524337323155524953746f726167653a2055524920736574206f66206e6f6e60448201526d32bc34b9ba32b73a103a37b5b2b760911b6064820152608401610776565b6000828152600a60209081526040909120825161081792840190611d65565b60006001600160e01b0319821663780e9d6360e01b1480610642575061064282611843565b6000818152600260205260409020546001600160a01b0316610ed05760405162461bcd60e51b8152602060048201526018602482015277115490cdcc8c4e881a5b9d985b1a59081d1bdad95b88125160421b6044820152606401610776565b600081815260046020526040902080546001600160a01b0319166001600160a01b03841690811790915581906111ce826109d7565b6001600160a01b03167f8c5be1e5ebec7d5bd14f71427d1e84f3dd0314c0f7b2291e5b200ac8c7c3b92560405160405180910390a45050565b600080611213836109d7565b9050806001600160a01b0316846001600160a01b0316148061125a57506001600160a01b0380821660009081526005602090815260408083209388168352929052205460ff165b8061127e5750836001600160a01b0316611273846106da565b6001600160a01b0316145b949350505050565b826001600160a01b0316611299826109d7565b6001600160a01b0316146112fd5760405162461bcd60e51b815260206004820152602560248201527f4552433732313a207472616e736665722066726f6d20696e636f72726563742060448201526437bbb732b960d91b6064820152608401610776565b6001600160a01b03821661135f5760405162461bcd60e51b8152602060048201526024808201527f4552433732313a207472616e7366657220746f20746865207a65726f206164646044820152637265737360e01b6064820152608401610776565b61136a838383611838565b611375600082611199565b6001600160a01b038316600090815260036020526040812080546001929061139e908490612298565b90915550506001600160a01b03821660009081526003602052604081208054600192906113cc9084906121e1565b909155505060008181526002602052604080822080546001600160a01b0319166001600160a01b0386811691821790925591518493918716917fddf252ad1be2c89b69c2b068fc378daa952ba7f163c4a11628f55a4df523b3ef91a4505050565b600b80546001600160a01b038381166001600160a01b0319831681179093556040519116919082907f8be0079c531659141344cd1fd0a4f28419497f9722a3daafe3b4186f6b6457e090600090a35050565b6040805180820190915260208082527f19457468657265756d205369676e6564204d6573736167653a0a303030303030908201528451600091906039820190620f423f8111156114ce57600080fd5b6000620186a05b801561155a5760006114e782856121cd565b9050806115065782611506576114fe600a836121cd565b9150506114d5565b82611510816122af565b935061151e905082826122ca565b6115289085612298565b9350611535600a836121cd565b91506115426030826121e1565b90508461154e816122af565b955050808553506114d5565b8161156857601b9150611576565b611573601a836121e1565b91505b8185526000858b60405160200161158e9291906122e9565b60408051601f1981840301815282825280516020918201206000845290830180835281905260ff8d1691830191909152606082018b9052608082018a9052915060019060a0016020604051602081039080840390855afa1580156115f6573d6000803e3d6000fd5b5050604051601f1901519c9b505050505050505050505050565b816001600160a01b0316836001600160a01b031614156116725760405162461bcd60e51b815260206004820152601960248201527f4552433732313a20617070726f766520746f2063616c6c6572000000000000006044820152606401610776565b6001600160a01b03838116600081815260056020908152604080832094871680845294825291829020805460ff191686151590811790915591519182527f17307eab39ab6107e8899845ad3d59bd9653f200f220920489ca2b5937696c31910160405180910390a3505050565b6116ea848484611286565b6116f684848484611893565b610dd35760405162461bcd60e51b815260040161077690612318565b606061171d8261113a565b6000828152600a602052604081208054611736906121f9565b80601f0160208091040260200160405190810160405280929190818152602001828054611762906121f9565b80156117af5780601f10611784576101008083540402835291602001916117af565b820191906000526020600020905b81548152906001019060200180831161179257829003601f168201915b5050505050905060006117ea60408051808201909152601581527468747470733a2f2f697066732e696f2f697066732f60581b602082015290565b90508051600014156117fd575092915050565b81511561182f5780826040516020016118179291906122e9565b60405160208183030381529060405292505050919050565b61127e8461198e565b610817838383611a1f565b60006001600160e01b031982166380ac58cd60e01b148061187457506001600160e01b03198216635b5e139f60e01b145b8061064257506301ffc9a760e01b6001600160e01b0319831614610642565b60006001600160a01b0384163b1561198657604051630a85bd0160e11b81526001600160a01b0385169063150b7a02906118d790339089908890889060040161236a565b6020604051808303816000875af1925050508015611912575060408051601f3d908101601f1916820190925261190f918101906123a6565b60015b61196c573d808015611940576040519150601f19603f3d011682016040523d82523d6000602084013e611945565b606091505b5080516119645760405162461bcd60e51b815260040161077690612318565b805181602001fd5b6001600160e01b031916630a85bd0160e11b14905061127e565b50600161127e565b60606119998261113a565b60006119cd60408051808201909152601581527468747470733a2f2f697066732e696f2f697066732f60581b602082015290565b905060008151116119ed5760405180602001604052806000815250611a18565b806119f784611ad7565b604051602001611a089291906122e9565b6040516020818303038152906040525b9392505050565b6001600160a01b038316611a7a57611a7581600880546000838152600960205260408120829055600182018355919091527ff3f7a9fe364faab93b216da50a3214154f22a0a2b415b23a84c8169e8b636ee30155565b611a9d565b816001600160a01b0316836001600160a01b031614611a9d57611a9d8382611bd5565b6001600160a01b038216611ab45761081781611c72565b826001600160a01b0316826001600160a01b031614610817576108178282611d21565b606081611afb5750506040805180820190915260018152600360fc1b602082015290565b8160005b8115611b255780611b0f816122af565b9150611b1e9050600a836121cd565b9150611aff565b60008167ffffffffffffffff811115611b4057611b40611dfe565b6040519080825280601f01601f191660200182016040528015611b6a576020820181803683370190505b5090505b841561127e57611b7f600183612298565b9150611b8c600a866123c3565b611b979060306121e1565b60f81b818381518110611bac57611bac612282565b60200101906001600160f81b031916908160001a905350611bce600a866121cd565b9450611b6e565b60006001611be284610a37565b611bec9190612298565b600083815260076020526040902054909150808214611c3f576001600160a01b03841660009081526006602090815260408083208584528252808320548484528184208190558352600790915290208190555b5060009182526007602090815260408084208490556001600160a01b039094168352600681528383209183525290812055565b600854600090611c8490600190612298565b60008381526009602052604081205460088054939450909284908110611cac57611cac612282565b906000526020600020015490508060088381548110611ccd57611ccd612282565b6000918252602080832090910192909255828152600990915260408082208490558582528120556008805480611d0557611d056123d7565b6001900381819060005260206000200160009055905550505050565b6000611d2c83610a37565b6001600160a01b039093166000908152600660209081526040808320868452825280832085905593825260079052919091209190915550565b828054611d71906121f9565b90600052602060002090601f016020900481019282611d935760008555611dd9565b82601f10611dac57805160ff1916838001178555611dd9565b82800160010185558215611dd9579182015b82811115611dd9578251825591602001919060010190611dbe565b50611de5929150611de9565b5090565b5b80821115611de55760008155600101611dea565b634e487b7160e01b600052604160045260246000fd5b600067ffffffffffffffff80841115611e2f57611e2f611dfe565b604051601f8501601f19908116603f01168101908282118183101715611e5757611e57611dfe565b81604052809350858152868686011115611e7057600080fd5b858560208301376000602087830101525050509392505050565b60008060408385031215611e9d57600080fd5b82359150602083013567ffffffffffffffff811115611ebb57600080fd5b8301601f81018513611ecc57600080fd5b611edb85823560208401611e14565b9150509250929050565b6001600160e01b031981168114610ed057600080fd5b600060208284031215611f0d57600080fd5b8135611a1881611ee5565b600060208284031215611f2a57600080fd5b5035919050565b60005b83811015611f4c578181015183820152602001611f34565b83811115610dd35750506000910152565b60008151808452611f75816020860160208601611f31565b601f01601f19169290920160200192915050565b602081526000611a186020830184611f5d565b80356001600160a01b0381168114611fb357600080fd5b919050565b60008060408385031215611fcb57600080fd5b611fd483611f9c565b946020939093013593505050565b600080600060608486031215611ff757600080fd5b61200084611f9c565b925061200e60208501611f9c565b9150604084013590509250925092565b60006020828403121561203057600080fd5b611a1882611f9c565b6000806000806080858703121561204f57600080fd5b84359350602085013560ff8116811461206757600080fd5b93969395505050506040820135916060013590565b80358015158114611fb357600080fd5b6000806040838503121561209f57600080fd5b6120a883611f9c565b91506120b66020840161207c565b90509250929050565b600080600080608085870312156120d557600080fd5b6120de85611f9c565b93506120ec60208601611f9c565b925060408501359150606085013567ffffffffffffffff81111561210f57600080fd5b8501601f8101871361212057600080fd5b61212f87823560208401611e14565b91505092959194509250565b60008060006060848603121561215057600080fd5b61215984611f9c565b92506020840135915061216e6040850161207c565b90509250925092565b6000806040838503121561218a57600080fd5b61219383611f9c565b91506120b660208401611f9c565b634e487b7160e01b600052601260045260246000fd5b634e487b7160e01b600052601160045260246000fd5b6000826121dc576121dc6121a1565b500490565b600082198211156121f4576121f46121b7565b500190565b600181811c9082168061220d57607f821691505b6020821081141561222e57634e487b7160e01b600052602260045260246000fd5b50919050565b6020808252602e908201527f4552433732313a2063616c6c6572206973206e6f7420746f6b656e206f776e6560408201526d1c881b9bdc88185c1c1c9bdd995960921b606082015260800190565b634e487b7160e01b600052603260045260246000fd5b6000828210156122aa576122aa6121b7565b500390565b60006000198214156122c3576122c36121b7565b5060010190565b60008160001904831182151516156122e4576122e46121b7565b500290565b600083516122fb818460208801611f31565b83519083019061230f818360208801611f31565b01949350505050565b60208082526032908201527f4552433732313a207472616e7366657220746f206e6f6e20455243373231526560408201527131b2b4bb32b91034b6b83632b6b2b73a32b960711b606082015260800190565b60006001600160a01b0380871683528086166020840152508360408301526080606083015261239c6080830184611f5d565b9695505050505050565b6000602082840312156123b857600080fd5b8151611a1881611ee5565b6000826123d2576123d26121a1565b500690565b634e487b7160e01b600052603160045260246000fdfea2646970667358221220c5fdea6fd9f6637d1ff039bc4149d6b5e8b1317d80bed131218fefd08d059d8264736f6c634300080a0033",
  "linkReferences": {},
  "deployedLinkReferences": {}
}